:100000000C94B3000C94DB000C94DB000C94DB002C
:100010000C945D080C94DB000C94DB000C94911D97
:100020000C94DB000C94DB000C94DB000C94DB00E4
:100030000C94DB000C94DB000C94DB000C94DB00D4
:100040000C94F6290C94DB000C94DB000C94DB0080
:100050000C94DB000C94DB000C94DB000C94DB00B4
:100060000C94D6280C94DB000C94DB000C94340820
:100070000C94DB000C94DB000C94DB000C94DB0094
:100080000C94DB000C94DB000C94DB000C94DB0084
:100090000C94DB000C94DB000C94DB000C94DB0074
:1000A0000C94DB000C94DB000C94DB000C94DB0064
:1000B0000C9487080664EC1B3C04BC163E3BE5B977
:1000C0003CC93C37C29E5A3D660498083EEA69AA7C
:1000D000AA3E000000803F05A84CCDB2D44EB938EE
:1000E00036A9020C50B9918688083CA6AAAA2ABE55
:1000F000000000803F00090C0D0800020100000311
:1001000004070000000000000000000000000102E1
:100110000408102040800102040810200102040895
:10012000102004080102040404040404040402026C
:100130000202020203030303030305050505000091
:1001400000002300260029002C00000000002500EC
:1001500028002B002E0000000000240027002A00A9
:100160002D00F5134E2711241FBECFEFD8E0DEBFC0
:10017000CDBF12E0A0E0B1E0ECE9F7E602C00590E7
:100180000D92A032B107D9F725E0A0E2B2E001C09C
:100190001D92AA3AB207E1F710E0C3EBD0E004C029
:1001A0002197FE010E94A830C13BD107C9F70E94E8
:1001B000372D0C94CC330C940000FC01862FA2E365
:1001C000B0E0B383A283A8E5B2E0B583A483A8EE30
:1001D000B3E0B783A6831286148613861686158627
:1001E000108A1786128A118A148A138A168A158A27
:1001F000108E178A128E118E148E138E168E158EF7
:1002000010A2178E12A211A216A215A210A617A252
:1002100012A611A614A613A660837183452B41F084
:100220001186108662E0211101C060E00C94452B1C
:1002300041E050E051874087F5CFFC017383628332
:100240000895FC01758364830895FC0177836683B8
:100250000895FC01748763870895FC01728B618B9C
:100260000895FC01728F618F0895CF92DF92EF9213
:10027000FF921F93CF93DF93EC01162F0E94402A29
:100280006B017C018BA59CA5009761F481E090E057
:1002900011119EC0DF91CF911F91FF90EF90DF90E1
:1002A000CF9008958130910509F04CC08DA59EA591
:1002B000AFA5B8A9B701A601481B590B6A0B7B0B68
:1002C000111115C08A819B81B0E0A0E04817590741
:1002D0006A077B0718F41CA61BA6DCCF82E090E01F
:1002E0009CA78BA7C9AADAAAEBAAFCAAD3CF8E81B6
:1002F0009F81B0E0A0E084179507A607B70750F6E6
:1003000081E08A87EF89F88D309709F00995E98DAA
:10031000FA8D309709F00995EB8DFC8D309719F027
:100320008D8D9E8D0995EDA1FEA1309709F009955F
:10033000EFA1F8A5309719F089A59AA5099586E04F
:1003400090E0CECF8230910509F049C089899A8921
:10035000892B21F48B899C89892B99F08DA59EA5E9
:10036000AFA5B8A9B701A601481B590B6A0B7B0BB7
:100370008C819D81B0E0A0E084179507A607B707A0
:1003800070F4EB85FC85309709F00995ED85FE85C5
:10039000309709F4A0CF8F85988909959CCF1123B8
:1003A00009F478CF89A99AA9ABA9BCA9B701A6017C
:1003B000481B590B6A0B7B0B8A819B81B0E0A0E044
:1003C00084179507A607B70708F064CF83E090E08D
:1003D0009CA78BA7CDA6DEA6EFA6F8AA5BCF83309D
:1003E000910529F5111156CF8DA59EA5AFA5B8A9E8
:1003F000B701A601481B590B6A0B7B0B8A819B81B5
:10040000B0E0A0E084179507A607B70708F042CF31
:10041000E989FA89309709F00995EB89FC893097C9
:1004200019F08D899E8909951CA61BA65BCF06979E
:1004300009F030CF11110DC01A86EF8DF8A1309759
:1004400009F00995E9A1FAA1309771F38BA19CA15C
:10045000EACF81E08A87EDA1FEA1309709F00995E6
:10046000EFA1F8A5309709F415CF89A59AA5DF91DA
:10047000CF911F91FF90EF90DF90CF900994CF9391
:10048000DF93EC018881998197FD0EC00E94AF2B0C
:1004900061E0288539852817390709F060E0CE0129
:1004A000DF91CF910C943501DF91CF91089508959C
:1004B00008951F93CF93DF93EC01162F0E9477339B
:1004C000181739F0612FCE01DF91CF911F910C9455
:1004D0007F33DF91CF911F9108950C947733FB0107
:1004E00094878387DC0118967C936E9317972585F4
:1004F0003685232B29F41D968D919C9196878587AF
:10050000CF010895DC01FB01968385831A967C93C5
:100510006E93199783859485892B31F41B968D9161
:100520009C911C979487838785859685892B29F4D0
:100530001D968D919C9196878587CF010895FB012B
:1005400090878783DC011C967C936E931B9725858F
:100550003685232B29F41D968D919C91968785874E
:10056000CF010895EF92FF920F931F93CF93DF93E4
:10057000CDB7DEB72C970FB6F894DEBF0FBECDBF58
:100580008C01FB01DC016D917C911197E080F18081
:100590006115710509F43FC0E114F10471F0CE0159
:1005A00001960E94822CB701CE0101960E94192D5E
:1005B00011E081111EC010E01CC062817381CE0168
:1005C00001960E94D22CF80160817181CE010796BC
:1005D0000E94822CBE016F5F7F4FCE0107960E9462
:1005E000082D11E0811101C010E0CE0107960E9494
:1005F000102CCE0101960E94102C812F2C960FB644
:10060000F894DEBF0FBECDBFDF91CF911F910F9148
:10061000FF90EF900895E114F10441F012966D916E
:100620007C91CE0101960E94D22CBDCF6281738154
:10063000CE0107960E94D22CF80162817381CE010F
:1006400001960E94D22CBE01695F7F4FCE010196B8
:100650000E94082D11E0811101C010E0CE01019629
:100660000E94102CCE010796C6CF0F931F93CF93F5
:10067000DF936115710561F08B01EC01E989FA895D
:10068000309721F06F857889C8010995188B0F87FD
:10069000DF91CF911F910F910895DC011F96ED918D
:1006A000FC91618572856115710529F0DB011E964B
:1006B000FC93EE931D970C943503CF93DF93CDB746
:1006C000DEB72F970FB6F894DEBF0FBECDBF809177
:1006D0000F01882379F18091EB03882341F183EDA9
:1006E00093E00E944D03E091E203F091E3038FE079
:1006F000DE01119601900D928A95E1F765EB73E0AA
:10070000CE0101960E94B202882321F010927A0451
:1007100081E00BC066EA73E0CE0101960E94B2024E
:10072000882389F081E080937A048093790481E0C2
:100730008093E8032F960FB6F894DEBF0FBECDBFAF
:10074000DF91CF91089567E973E0CE0101960E9491
:10075000B202882321F082E080937A04D9CF69E73E
:1007600073E0CE0101960E94B202882319F0109224
:100770001001CECF6AE673E0CE0101960E94B2026C
:10078000882321F081E080931001CFCF6BE573E0E7
:10079000CE0101960E94B202882321F082E080936C
:1007A0001001B6CF63EE72E0CE0101960E94B20254
:1007B000882321F081E08093B804B9CF62EF72E022
:1007C000CE0101960E94B202882311F082E0F3CF9D
:1007D00064ED72E0CE0101960E94B202882319F006
:1007E0001092B804A4CF66EB72E0CE0101960E948D
:1007F000B202882319F01092770499CF67EA72E069
:10080000CE0101960E94B202882321F083E08093FA
:1008100077048DCF68E972E0CE0101960E94B202A2
:10082000882311F081E0F3CF6EE273E0CE010196F0
:100830000E94B202882319F01092760478CF6DE3FB
:1008400073E0CE0101960E94B202882321F082E07B
:10085000809376046CCF6FE173E0CE0101960E9425
:10086000B202882311F081E0F3CF60E173E0CE01A2
:1008700001960E94B202882311F083E0E9CF6AE773
:1008800072E0CE0101960E94B202882369F0809145
:100890007B048F5F80937B0480917B04833008F41A
:1008A00046CF10927B0443CF6CE572E0CE010196F7
:1008B0000E94B202882309F43ACF80910C019091F2
:1008C0000D018C599F4F90930D0180930C018091E5
:1008D0000C0190910D01813D974008F428CF84E6EA
:1008E00090E090930D0180930C0121CF1F93CF9343
:1008F000DF93CDB7DEB72F970FB6F894DEBF0FBEEC
:10090000CDBF8091EB03882309F4A8C080910F012B
:10091000882309F4A3C0E091E203F091E3038FE0A0
:10092000DE01119601900D928A95E1F764EC73E077
:10093000CE0101960E94B202811158C065EC72E0AE
:10094000CE0101960E94B202811150C06CE473E0A6
:10095000CE0101960E94B202811148C061E073E0AD
:10096000CE0101960E94B202811140C068E873E096
:10097000CE0101960E94B202811138C069E872E08E
:10098000CE0101960E94B202811130C06BE672E086
:10099000CE0101960E94B202811128C06EE372E07E
:1009A000CE0101960E94B20281112BC16FE272E06A
:1009B000CE0101960E94B202811123C160E272E071
:1009C000CE0101960E94B20281111BC1E091E203A7
:1009D000F091E303638574856115710509F481C0A5
:1009E000DB011E96FC93EE931D977BC0E091E20322
:1009F000F091E303678170856115710529F0DB01D2
:100A00001E96FC93EE931D9783ED93E00E943503B1
:100A100064EC73E0CE0101960E94B2028823F1F1EA
:100A200080917A04811106C065EB73E083ED93E059
:100A30000E94350380917A04813031F466EA73E0D4
:100A400083ED93E00E94350380917A0467E973E0B7
:100A5000823009F446C081E08093E80380910F0161
:100A6000882391F08091EB0381110EC011E0109367
:100A7000EB0363ED73E0CB010E94350383ED93E05C
:100A80000E944D031093E8032F960FB6F894DEBF33
:100A90000FBECDBFDF91CF911F91089565EC72E03D
:100AA000CE0101960E94B202882301F18091770461
:100AB000833031F467EA72E083ED93E00E943503FE
:100AC00080917704811106C066EB72E083ED93E0BC
:100AD0000E9435038091770468E972E0813009F063
:100AE000BACF83ED93E00E943503B5CF6CE473E099
:100AF000CE0101960E94B202882331F180917604E2
:100B0000811106C06EE273E083ED93E00E9435032D
:100B100080917604813031F46FE173E083ED93E0EE
:100B20000E94350380917604823031F46DE373E0E6
:100B300083ED93E00E9435038091760460E173E0D9
:100B4000833009F088CFCDCF61E073E0CE0101960C
:100B50000E94B2028823D9F08091B804823031F427
:100B600062EF72E083ED93E00E9435038091B80458
:100B7000813031F463EE72E083ED93E00E9435033F
:100B80008091B80464ED72E0811165CFAACF68E866
:100B900073E0CE0101960E94B2028823E1F08091B9
:100BA0001001811106C069E773E083ED93E00E94B4
:100BB000350380911001813031F46AE673E083EDF2
:100BC00093E00E943503809110016BE573E0823061
:100BD00009F041CF86CF69E872E0CE0101960E940C
:100BE000B2026AE772E081117CCF6BE672E0CE015F
:100BF00001960E94B202882309F42DCF6CE572E0C1
:100C000070CF6EE372E0CE0101960E94B20288239B
:100C100021F081E0809375041ECF6FE272E0CE0177
:100C200001960E94B202882321F081E0809374042F
:100C300012CF60E272E0CE0101960E94B2028823D8
:100C400009F409CF81E08093730405CF8091EB0311
:100C5000882351F06EE372E083ED93E00E94350348
:100C600081E08093E803089580910F0191E0892746
:100C700080930F0190937C04089564EC73E083EDFE
:100C800093E00E9482026CE473E084EC93E00E94A3
:100C9000820265EC72E08CE493E00E94820261E0E3
:100CA00073E085EC92E00E94820268E873E081E0E4
:100CB00093E00E94820269E872E088E893E00E9473
:100CC00082026BE672E089E892E00E94820264ECA4
:100CD00073E08BE692E00E9482026EE372E08DE4A4
:100CE00092E00E946F026FE272E08EE392E00E9457
:100CF000820260E272E08FE292E00E9482026EE382
:100D000072E080E292E00E9482026DE472E08EE383
:100D100092E00E949F026DE472E08FE292E00E94F6
:100D20009F026DE472E080E292E00E949F0265EB18
:100D300073E084EC93E00E946F0266EA73E085EB57
:100D400093E00E94820267E973E086EA93E00E94E2
:100D5000820265EB73E087E993E00E94820264EC13
:100D600073E087E993E00E949F0264EC73E086EAF7
:100D700093E00E949F0264EC73E085EB93E00E9495
:100D80009F026EE273E08CE493E00E946F026FE1D9
:100D900073E08EE293E00E9482026DE373E08FE1E4
:100DA00093E00E94820260E173E08DE393E00E9491
:100DB00082026EE273E080E193E00E9482026CE4C2
:100DC00073E08EE293E00E949F026CE473E08DE397
:100DD00093E00E949F026CE473E08FE193E00E9435
:100DE0009F026CE473E080E193E00E949F0266EB57
:100DF00072E085EC92E00E946F0267EA72E086EB97
:100E000092E00E94820268E972E087EA92E00E9422
:100E1000820266EB72E088E992E00E94820265EC51
:100E200072E086EB92E00E949F0265EC72E087EA36
:100E300092E00E949F0265EC72E088E992E00E94D5
:100E40009F0263EE72E081E093E00E946F0262EF26
:100E500072E083EE92E00E94820264ED72E082EF23
:100E600092E00E94820263EE72E084ED92E00E94C2
:100E7000820261E073E083EE92E00E949F0261E0F3
:100E800073E082EF92E00E949F0261E073E084EDE4
:100E900092E00E949F0269E773E088E893E00E9475
:100EA0006F026AE673E089E793E00E9482026BE5D5
:100EB00073E08AE693E00E94820269E773E08BE5C3
:100EC00093E00E94820268E873E089E793E00E9461
:100ED0009F0268E873E08AE693E00E949F0268E858
:100EE00073E08BE593E00E949F026AE772E089E875
:100EF00092E00E946F026AE772E0CB010E948202D8
:100F000069E872E08AE792E00E949F026CE572E075
:100F10008BE692E00E946F026CE572E0CB010E94CA
:100F200082026BE672E08CE592E00C949F0260E036
:100F300085E10E94812B68EC70E08DEB94E00E94CB
:100F4000941768EC70E08DEB94E00E94B5178DEB80
:100F500094E00E945D179093BC048093BB048DEBDA
:100F600094E00E9476179093BA048093B9046AEAD9
:100F700090E080E00E9459026091BB0480E190E023
:100F80000E9459026091BC0481E190E00E945902E4
:100F90006091B90480E290E00E9459026091BA0425
:100FA00081E290E00E94590261E085E10E94812B7C
:100FB00064EF71E080E090E00E94712A60E085E1DA
:100FC0000E94812B109274040895EF920F931F9347
:100FD0000E948D1B64EF71E080E090E00E94712A16
:100FE000E12C04E610E020E030E048E552E063E068
:100FF00084E00E944F1C04E610E020E030E04CED5D
:1010000055E063E084E00E944F1C04E610E020E01D
:1010100030E048EE53E063E084E00E944F1C64EF50
:1010200071E080E090E00E94712A60E085E10E941A
:10103000812B64EF71E080E090E00E94712A61E012
:1010400085E10E94812B64EF71E080E090E00E94D6
:10105000712A60E085E10E94812B81E08093E803A2
:101060001F910F91EF9008951F920F920FB60F925C
:1010700011242F933F934F935F936F937F938F939D
:101080009F93AF93BF93EF93FF9383E894E00E9405
:101090003F0281E080937D04FF91EF91BF91AF917A
:1010A0009F918F917F916F915F914F913F912F9180
:1010B0000F900FBE0F901F9018951F920F920FB6B2
:1010C0000F9211242F933F934F935F936F937F93CE
:1010D0008F939F93AF93BF93EF93FF9381E10E9410
:1010E000AF2B892B19F481E080938204FF91EF915B
:1010F000BF91AF919F918F917F916F915F914F9130
:101100003F912F910F900FBE0F901F9018951F9237
:101110000F920FB60F9211248F9381E08093780481
:101120008F910F900FBE0F901F901895EF920F9315
:101130001F93CF93DF93F89410927A0010927B0064
:101140008FE380937E0080917E00806C80937E0090
:1011500080917F00836080937F0080B7806880BF2C
:10116000A89584B7877F84BF10926000789461E06F
:1011700082E00E94452B61E085E10E94452B61E001
:1011800086E10E94452B61E084E00E94452B61E0EE
:1011900083E00E94452B61E085E00E94452B60E0E2
:1011A00084E10E94452B62E081E10E94452B61E0D1
:1011B00080E10E94452B61E089E00E94452B61E0BF
:1011C00088E00E94452B60E085E10E94812B61E070
:1011D00082E00E94812B62E070E080E090E00E945B
:1011E000712A61E080E10E94812B61E086E10E942A
:1011F000812B89ED94E00E94AB2640EA56E861E03D
:1012000070E089ED94E00E94B52664EF71E080E023
:1012100090E00E94712A0E94001C0E94001C81E143
:101220008093F00381E08093F1031092F20384E055
:101230008093F30380EF93E00E94F71A82E00E940C
:10124000AD1A0E940E1C68EE73E080E090E00E94F0
:10125000712A8DEB94E00E940817811105C062E0AD
:1012600070E080E090E0F3CF8DEB94E00E94CE162A
:101270008823A9F060E085E10E94812B64EF71E092
:1012800080E090E00E94712A61E085E10E94812B5C
:1012900064EF71E080E090E00E94712AEBCF66E796
:1012A00074E083E894E00E942D016DE573E083E82B
:1012B00094E00E94290166E276E083E894E00E94CF
:1012C000310160ED77E083E894E00E9425016CE253
:1012D00071E083E894E00E94210162E370E083E81A
:1012E00094E00E941D010E943D06F894DB9A8091D3
:1012F00068008860809368008091730084608093A8
:101300007300D99A80916800826080936800809110
:101310006C00886080936C0080916500877F80936B
:1013200065001092A00084E08093A1001092A700B5
:101330001092A6001092A9001092A8001092AB0083
:101340001092AA0081E08093720078948DEB94E073
:101350000E948F178DEB94E00E94E7168DEB94E0CE
:101360000E94FC1660910A0170910B018DEB94E0D4
:101370000E94F71660910A0170910B018DEB94E0C9
:101380000E94031790E080E00E946D028A3A51F5B6
:1013900080E190E00E946D02C82F81E190E00E9400
:1013A0006D02D82FD093BC04C093BB0480E290E0C0
:1013B0000E946D02182F81E290E00E946D02982F2A
:1013C000812F9093BA048093B904BE018DEB94E011
:1013D0000E9458176091B9047091BA048DEB94E0A3
:1013E0000E9471178DEB94E00E94ED1660910A0146
:1013F00070910B0188EE93E00E943F3046E087E257
:1014000094E00E94D61742E050E06AE070E083E189
:1014100094E00E94FF1942E050E064E170E085E052
:1014200094E00E94FF1944E050E06AE070E087EF2A
:1014300093E00E94FF190E94402A60937E047093FB
:101440007F04809380049093810483E894E00E9459
:101450003F020E94402A60936F047093700480934F
:10146000710490937204E12C04E610E020E030E077
:1014700048E552E063E084E00E944F1C04E610E07F
:1014800020E030E04CED55E063E084E00E944F1C2A
:1014900004E610E020E030E048EE53E063E084E052
:1014A0000E944F1C1092A5001092A4001092780484
:1014B000DF91CF911F910F91EF9008952F923F925E
:1014C0004F925F926F927F928F929F92AF92BF9254
:1014D000CF92DF92EF92FF920F931F93CF93DF9300
:1014E000CDB7DEB763970FB6F894DEBF0FBECDBFA2
:1014F0000E94402A4B015C0180917D04882351F0B9
:1015000010927D0480927E0490927F04A0928004C9
:10151000B092810480917804882369F01092780455
:1015200062E081E10E94452B8DEB94E00E94E2167F
:1015300081E08093790480918204882309F4FEC0BD
:101540001092A5001092A4008DEB94E00E94E21688
:1015500080926F0490927004A0927104B092720411
:101560008091EB0381111BC180912304909124048D
:1015700090932204809321048DEB94E00E941E1727
:1015800090932404809323048DEB94E00E943217FF
:10159000B0E0A0E0888B998BAA8BBB8B8DEB94E09D
:1015A0000E944617182F20912304309124042F31D4
:1015B000310508F0D0C18091E9039091EA030196CA
:1015C0009093EA038093E90360910A0170910B0103
:1015D00088EE93E00E943F3088E7869FA001879FB6
:1015E000500D11248091E9039091EA03481759079F
:1015F00028F481E080937C0410920F0180917A049A
:101600008111B4C167E274E0C9010E940B19909383
:1016100026048093250465E274E083E194E00E944F
:101620002D1A65E274E085E094E00E942D1ABE0157
:10163000605F7F4F87EF93E00E942D1A6AE08091F0
:10164000F7039091F8030E94DD196B017C018091F2
:101650007A0429E8C21623E1D206E104F1041CF45D
:10166000823009F07DC16AE08091130490911404E6
:101670000E94CA1990932604809325043CEDC3165A
:1016800035E0D306E104F1040CF07EC1809125041D
:1016900090912604883E934008F076C1123008F4F9
:1016A00073C181E08093F603809125049091260414
:1016B0008938934130F088E893E190932604809331
:1016C00025041092820400912504109126040E94A2
:1016D000EE1A8091F603882309F466C190917A048A
:1016E0008091F503911153C18E5F8093F503809132
:1016F000F503843138F08091F4031092F5038F5F85
:101700008093F4038091F403843010F01092F4037A
:101710008091F4030E94AD1A8091F60381110CC0F0
:101720008091B804882341F080910E0118160CF0C6
:101730005AC2815080930E010E940E1C80916F044A
:1017400090917004A0917104B0917204A50194016C
:10175000281B390B4A0B5B0BDA01C901893893410D
:10176000A105B105E0F080910F018823C1F00E942E
:10177000EE1A8AE08093F0039FE09093F1031092B9
:10178000F2038093F30380EF93E00E94F71A0E9424
:101790000E1C6AE070E080E090E00E94712A809167
:1017A000EB03882321F080910F018111D9C360E000
:1017B00085E10E94812B80917E0490917F04A0910D
:1017C0008004B0918104A5019401281B390B4A0BB8
:1017D0005B0BDA01C90189389341A105B10568F0B5
:1017E00083B7817F846083BF8091EB03882329F0D6
:1017F0001092EB038AE080930E0184E10E94AF2BEC
:10180000892B09F05DC683E894E00E943F0261E005
:1018100070E080E090E00E94712A80917904882332
:1018200009F460C08091EB0381115CC010927904CF
:101830008DEB94E00E94F2168DEB94E00E94FC1672
:1018400080917A04813009F488C608F471C6823028
:1018500009F492C6809110012FEB44E064E08823E4
:1018600049F0809110012FEB48E068E0813011F0E1
:1018700040E160E18DEB94E00E948A1790E080E007
:101880000E946D028A3A51F580E190E00E946D025B
:10189000082F81E190E00E946D02182F1093BC0484
:1018A0000093BB0480E290E00E946D02F82E81E27A
:1018B00090E00E946D02982F8F2D9093BA04809330
:1018C000B904B8018DEB94E00E9458176091B904F7
:1018D0007091BA048DEB94E00E9471178DEB94E047
:1018E0000E94ED1680917C04882309F4DCC61092D6
:1018F0007C0480910F01882309F40DC761E082E028
:101900000E94812B62E070E080E090E00E94712AEA
:1019100061E080E10E94812B61E086E10E94812BE1
:1019200062E081E10E94452B64EF71E080E090E08D
:101930000E94712A0E94001C0E94001C8DEB94E002
:101940000E940817811127C662E070E080E090E0F5
:101950000E94712AF3CF1092EA031092E90334CE69
:1019600064E1809105049091060482CE30932604B0
:101970002093250488899989AA89BB898835924052
:10198000A105B1050CF48ACE1092F6038DCE90918C
:101990007A04913011F48C5FA8CE90917A04923041
:1019A00009F0A5CE8C5EA1CE80917604811135C060
:1019B0008091250490912604813D37E0930770F0D3
:1019C0006AE070E00E943F302AE0269FC001279F16
:1019D000900D112490932604809325048091250472
:1019E00090912604893B4BE0940770F064E670E028
:1019F0000E943F3024E6269FC001279F900D1124AE
:101A000090932604809325048091250490912604C8
:101A10000E94271B809177047DCEB80190E080E082
:101A20000E945E2E2BEF3AE74DE152E40E94152F03
:101A30000E942F2E6B017C012CE030E040E050E052
:101A40000E94673029013A01B901209176042130C2
:101A500079F551E7451657E155066104710418F10F
:101A6000C701B60128E730E040E050E00E9467304F
:101A7000AAE0B0E00E94AE30693223E2720781052D
:101A8000910588F024E630E040E050E00E946730A5
:101A9000A4E6B0E00E94AE30603137E27307810502
:101AA000910508F096C6CB010E94271B81E032CE3B
:101AB00080917604823009F04BC041E4C41649E1BC
:101AC000D40641E0E406F104C8F1C701B60124E6FA
:101AD00030E040E050E00E946730A4E6B0E00E94B1
:101AE000AE306B017C0151EEC51655EAD50651E0CA
:101AF000E506F10408F462C628EE33E040E050E069
:101B00000E946730A8EEB3E00E94AE306B017C010A
:101B100080E4C81682E4D8068FE0E806F10408F0F5
:101B2000FBCDC701B60124E630E040E050E00E9462
:101B30006730C9010E94271B83E0ECCD90E1C916F4
:101B400097E2D906E104F10408F038C6C601ACCF2B
:101B500080917604833009F0DFCD88EEC82E83E0D3
:101B6000D82EE12CF12CCA01A70196010E94673002
:101B7000461A570A680A790A2CE0269F1001279F07
:101B8000300C1124C301B20120E137E240E050E003
:101B90000E9467300AE010E0C901B8010E9453308A
:101BA0008983C301B201A70196010E946730C90170
:101BB000B8010E9453308A83C10160E177E20E943C
:101BC00053306B83C10168EE73E00E945330CB0148
:101BD000B8010E9453308C830E94DC1ACE0101961A
:101BE0000E94F71A99CD80910C0190910D012091DE
:101BF0002504309126042817390708F0A8C161E0B0
:101C000089E00E94452B61E088E00E94452B80918D
:101C10007B04811169C024E630E040E050E060E0E0
:101C200070E0CB010E94F22BE0900C01F0900D01CE
:101C300000910C0110910D010E94602E20E030E017
:101C400048EC52E40E94BD2D2DEC3CEC4CEC5DE3E5
:101C50000E944C2D2B013C01B70190E080E00E94D6
:101C60005E2E6B017C01609125047091260490E04A
:101C700080E00E945E2E9B01AC01C701B6010E946C
:101C80004B2D6B017C01B80190E080E00E945E2E3C
:101C90009B01AC01C701B6010E94BD2D9B01AC01A7
:101CA000C301B2010E94B82D87FF46CD8091B804D0
:101CB000EE24E39403E010E020E030E048E552E059
:101CC000813009F087C061E083E00E94812BEE241F
:101CD000E39403E010E020E030E048E552E065E006
:101CE00084E00E944F1C28CD80917B04813009F054
:101CF00073C08091B8048130C9F561E083E00E942F
:101D0000812B60910C0170910D0100910C011091DB
:101D10000D018091250490912604681B790B90E0B9
:101D200080E00E945E2E6B017C01B80190E080E0B3
:101D30000E945E2E9B01AC01C701B6010E94BD2D21
:101D400020E030E04AE755E40E94152F20E030E023
:101D500048EC52E40E944C2D0E942F2EEE24E39476
:101D60000FE010E020E030E0AB01B9CF60910C0152
:101D700070910D0100910C0110910D0180912504CD
:101D800090912604681B790B90E080E00E945E2E03
:101D90006B017C01B80190E080E00E945E2E9B0107
:101DA000AC01C701B6010E94BD2D20E030E04AE73A
:101DB00055E40E94152F20E030E048EC52E40E94E8
:101DC0004C2D0E942F2EEE24E3940FE010E020E033
:101DD00030E0AB0163E084CF80917B04823009F076
:101DE000ABCC009125041091260420900C0130907A
:101DF0000D018091EC039091ED03A091EE03B09161
:101E0000EF03A5019401281B390B4A0B5B0BCA0198
:101E1000B9010E945E2E6B017C01B80190E080E068
:101E20000E945E2E2B013C01B10190E080E00E94F7
:101E30005E2E9B01AC01C301B2010E94BD2D20E0CA
:101E400030E04AEF53E40E94152F20E030E04AEFE3
:101E500053E40E944C2D9B01AC01C701B6010E94C6
:101E6000102F87FD69CC8092EC039092ED03A09235
:101E7000EE03B092EF038091B8048130C1F561E0C8
:101E800083E00E94812B60910C0170910D01009103
:101E90000C0110910D018091250490912604681B7E
:101EA000790B90E080E00E945E2E6B017C01B8010E
:101EB00090E080E00E945E2E9B01AC01C701B6015C
:101EC0000E94BD2D20E030E04AE754E40E94152F27
:101ED00020E030E04AE754E40E944C2D0E942F2E6F
:101EE000EE24E39406E910E020E030E03DCF60917D
:101EF0000C0170910D01E0900C01F0900D01601B40
:101F0000710B90E080E00E945E2E2B013C01B70136
:101F100090E080E00E945E2E9B01AC01C301B20103
:101F20000E94BD2D20E030E04AE754E40E94152FC6
:101F300020E030E04AE754E40E944C2D0E942F2E0E
:101F4000EE24E39406E910E020E030E042CF60E0C8
:101F500084E00E94812B60E083E00E94812BECCB27
:101F600080917504882321F00E94E5071092750482
:101F700080917404882321F00E94970710927404C2
:101F800080917304882309F440C01092BC0410921D
:101F9000BB041092BA041092B90460E085E10E947B
:101FA000812B60E090E080E00E94590260E080E1D7
:101FB00090E00E94590260E081E190E00E945902A5
:101FC00060E080E290E00E94590260E081E290E0EF
:101FD0000E9459021092730470E060E08DEB94E06F
:101FE0000E94581770E060E08DEB94E00E9471173A
:101FF00060E273E080E090E00E94712A61E085E198
:102000000E94812B81E0809379048091E8038823EA
:1020100009F442C0E091E203F091E3038FE0DE01B6
:10202000119601900D928A95E1F70E94EE1A8AE0CE
:102030008093F0038093F1038093F2038093F30382
:1020400065EB73E0CE0101960E94B202882361F035
:1020500085E08093F0038BE08093F10382E080932E
:10206000F2031092F30310C066EA73E0CE0101960A
:102070000E94B202882391F085E08093F0039BE0F8
:102080009093F1038093F30380EF93E00E94F71A9B
:102090000E940E1C1092E80361E08ACB67E973E0AE
:1020A000CE0101960E94B202882341F085E0809320
:1020B000F0038BE08093F10381E0E4CF66EB72E004
:1020C000CE0101960E94B202882381F08CE08093B9
:1020D000F0038BE08093F1038EE08093F203809312
:1020E000F303809177040E94AD1ACECF67EA72E0C5
:1020F000CE0101960E94B202882359F08CE08093B1
:10210000F0038BE08093F10383E18093F2038EE090
:10211000E6CF68E972E0CE0101960E94B202882300
:1021200039F08CE08093F0038BE08093F103EFCFE4
:102130006FE173E0CE0101960E94B202882359F04C
:102140008DE08093F0038BE08093F10381E1809335
:10215000F20382E197CF6DE373E0CE0101960E9416
:10216000B202882359F08DE08093F0038BE08093D6
:10217000F10381E08093F20384E184CF60E173E0B6
:10218000CE0101960E94B202882351F08DE0809327
:10219000F0038BE08093F10381E18093F2038CCF15
:1021A0006EE273E0CE0101960E94B202882341F0F4
:1021B0008DE08093F0038BE08093F10385E0EDCF19
:1021C00069E773E0CE0101960E94B202882359F0BC
:1021D00081E18093F0038BE08093F10381E08093B1
:1021E000F20385E04FCF6AE673E0CE0101960E94CC
:1021F000B202882341F081E18093F0038BE0809369
:10220000F10382E0CACF6BE573E0CE0101960E9434
:10221000B202882359F081E18093F0038BE0809330
:10222000F10382E08093F20387E02CCF64ED72E04B
:10223000CE0101960E94B202882351F08FE0809374
:10224000F0038BE08093F1031092F20381E11ACF47
:1022500063EE72E0CE0101960E94B202882339F04B
:102260008FE08093F0039BE09093F103F8CE62EF50
:1022700072E0CE0101960E94B202882341F08FE005
:102280008093F0038BE08093F10380E186CF6EE3CF
:1022900072E0CE0101960E94B202882341F08CE0E8
:1022A0008093F00388E08093F1038AE0BBCF6FE274
:1022B00072E0CE0101960E94B202882359F08CE0B0
:1022C0008093F00388E08093F1038AE08093F20327
:1022D00083E1D8CE60E272E0CE0101960E94B202A4
:1022E000882351F08CE08093F00398E09093F10301
:1022F0009AE09093F203C6CE6AE772E0CE010196AF
:102300000E94B202882361F082E18093F0038BE0A7
:102310008093F1038AE08093F20380917B04B2CE34
:102320006CE572E0CE0101960E94B202882309F4A6
:102330007EC080E18093F0038BE08093F103609195
:102340000C0170910D0190E080E00E945E2E2BEF59
:102350003AE74DE152E40E94152F0E942F2E6B01A7
:102360007C018091760481111BC080910C019091B9
:102370000D0168EE73E00E943F306093F20380919C
:102380000C0190910D0164E670E00E943F30CB019A
:102390006AE070E00E943F308093F30383E0A3CEB5
:1023A00080917604813031F180917604833011F18F
:1023B00080917604823009F067CEC701B60128EE1D
:1023C00033E040E050E00E9467302093F203C70101
:1023D000B60124E630E040E050E00E946730CA01D8
:1023E000B9012AE030E040E050E00E94673060939D
:1023F000F3034ACEC701B60120EE3EE240E050E0D2
:102400000E9467302093F203C701B60120EB34E04D
:1024100040E050E00E946730CA01B9012AE030E094
:1024200040E050E00E9467306093F303B7CF64EC64
:1024300073E0CE0101960E94B202882321F085E06C
:102440008093F00321CE65EC72E0CE0101960E94EC
:10245000B202882311F08CE0F3CF6CE473E0CE017C
:1024600001960E94B202882311F08DE0E9CF61E06D
:1024700073E0CE0101960E94B202882311F08FE032
:10248000DFCF68E873E0CE0101960E94B202882394
:1024900011F081E1D5CF69E872E0CE0101960E948A
:1024A000B202882311F082E1CBCF6BE672E0CE015D
:1024B00001960E94B202882309F4E6CD80E1C0CFE4
:1024C00080917E0490917F04A0918004B09181045A
:1024D000881A990AAA0ABB0A48E8841643E19406B6
:1024E000A104B10438F483E894E00E943F0283B76A
:1024F000817F0FC00E94761D8111F9CF80917B04EE
:10250000823021F48091B8048111F1CF83B7817FAB
:10251000846083BFF89483B7816083BF80E685BF02
:1025200080E485BF7894889583B78E7F83BF75C913
:1025300082E390E090930B0180930A0162E370E0E4
:102540008DEB94E00E94F71660910A0170910B01E7
:102550008DEB94E00E9403177DC984E690E0909390
:102560000B0180930A0164E670E08DEB94E00E9419
:10257000F71668EC70E0ECCF88EC90E090930B01DC
:1025800080930A0168EC70E08DEB94E00E94F716EE
:1025900068EE73E0DDCF8DEB94E00E94CE16809163
:1025A000B8048823F9F0E12C04E610E020E030E0E4
:1025B00048E552E063E084E00E944F1C04E610E02E
:1025C00020E030E04CED55E063E084E00E944F1CD9
:1025D00004E610E020E030E048EE53E063E084E001
:1025E0000E944F1C8DEB94E00E948F178DEB94E0BE
:1025F0000E94E7168DEB94E00E94FC1680917A040D
:10260000813009F476C008F467C0823009F47AC0DA
:10261000809110012FEB44E064E0882349F0809121
:1026200010012FEB48E068E0813011F040E160E1FB
:102630008DEB94E00E948A1790E080E00E946D028A
:102640008A3A51F580E190E00E946D02082F81E105
:1026500090E00E946D02182F1093BC040093BB04FD
:1026600080E290E00E946D02F82E81E290E00E94EC
:102670006D02982F8F2D9093BA048093B904B801FE
:102680008DEB94E00E9458176091B9047091BA04E0
:102690008DEB94E00E94711784E08093A1008DEB94
:1026A00094E00E94ED1663960FB6F894DEBF0FBE5D
:1026B000CDBFDF91CF911F910F91FF90EF90DF90F1
:1026C000CF90BF90AF909F908F907F906F905F90D2
:1026D0004F903F902F90089562E370E08DEB94E06F
:1026E0000E94F71662E370E08DEB94E00E940317FE
:1026F0008FCF64E670E08DEB94E00E94F71668ECF3
:1027000070E0F2CF64E670E08DEB94E00E94F71683
:1027100068EE73E0E9CF8DEB94E00E94F2160E9420
:10272000EE1A0E940E1C68EC70E080E090E00E94BF
:10273000712A8091B804882359F0E12C0CE810E04C
:1027400020E030E048EC50E063E084E00E944F1C61
:1027500060E085E10E94812B88E08093A1001092C7
:10276000EB0360E080E10E94812B62E070E080E09A
:1027700090E00E94712A60E082E00E94812B60E07C
:1027800086E10E94812B60E081E10E94452B10923E
:10279000820480917E0490917F04A0918004B09186
:1027A000810480519742A109B10980937E049093DE
:1027B0007F04A0938004B093810475CFC701B60154
:1027C00050EAC51656E8D50651E0E506F10408F0D2
:1027D000A8C92AE030E040E050E00E946730C9011B
:1027E0000E94271B82E00C948A0B2FEF3FEF4FEFE4
:1027F0005FEF69ED74E08DEB94E00E94711620E0CC
:1028000041E050E064E170E083E894E00E94DD0084
:10281000E3EDF3E082E291E09183808314821382FE
:102820001282128611861086178216821582F08B0C
:10283000E787F487E38788E592E0928B818B87E5D1
:1028400092E0948B838BE4ECF3E08BE291E0918354
:102850008083148213821282148613861286118654
:102860001086178216821582E5EBF3E08DE291E087
:1028700091838083148213821282148613861286B7
:1028800011861086178216821582E6EAF3E084E349
:1028900091E09183808314821382128214861386BE
:1028A000128611861086178216821582E7E9F3E0F8
:1028B00087E391E0918380831482138212821486CD
:1028C0001386128611861086178216821582E8E812
:1028D000F3E080E391E0918380831482138212827B
:1028E0001486138612861186108617821682158228
:1028F000E9E7F3E083E391E091838083148213821C
:10290000128214861386128611861086178216820A
:102910001582EAE6F3E086E391E0918380831482F6
:1029200013821282148613861286118610861782ED
:1029300016821582EBE5F3E089E391E091838083D1
:1029400014821382128214861386128611861086D0
:10295000178216821582ECE4F3E08CE391E0918318
:102960008083148213821282148613861286118643
:102970001086178216821582EDE3F3E081E491E080
:1029800091838083148213821282148613861286A6
:1029900011861086178216821582EEE2F3E081E638
:1029A00091E09183808314821382128214861386AD
:1029B000128611861086178216821582EFE1F3E0E7
:1029C0008EE391E0918380831482138212821486B5
:1029D0001386128611861086178216821582E0E110
:1029E000F3E080E491E09183808314821382128269
:1029F0001486138612861186108617821682158217
:102A0000E1E0F3E083E491E0918380831482138218
:102A100012821486138612861186108617821682F9
:102A20001582E2EFF2E085E491E0918380831482E5
:102A300013821282148613861286118610861782DC
:102A400016821582E3EEF2E088E491E091838083C0
:102A500014821382128214861386128611861086BF
:102A6000178216821582E4EDF2E08BE491E0918307
:102A70008083148213821282148613861286118632
:102A80001086178216821582E5ECF2E08EE491E062
:102A90009183808314821382128214861386128695
:102AA00011861086178216821582E6EBF2E080E529
:102AB00091E091838083148213821282148613869C
:102AC000128611861086178216821582E7EAF2E0D6
:102AD00083E591E0918380831482138212821486AD
:102AE0001386128611861086178216821582E8E9EF
:102AF000F2E084E591E09183808314821382128254
:102B00001486138612861186108617821682158205
:102B1000E9E8F2E086E591E09183808314821382F4
:102B200012821486138612861186108617821682E8
:102B30001582EAE7F2E088E591E0918380831482D0
:102B400013821282148613861286118610861782CB
:102B500016821582EBE6F2E08BE591E091838083AB
:102B600014821382128214861386128611861086AE
:102B7000178216821582ECE5F2E08DE591E09183F3
:102B80008083148213821282148613861286118621
:102B90001086178216821582EDE4F2E080E691E05D
:102BA0009183808314821382128214861386128684
:102BB00011861086178216821582EEE3F2E083E614
:102BC00091E091838083148213821282148613868B
:102BD000128611861086178216821582EFE2F2E0C5
:102BE00086E691E091838083148213821282148698
:102BF0001386128611861086178216821582E0E2ED
:102C0000F2E089E691E0918380831482138212823C
:102C100014861386128611861086178216821582F4
:102C200008950895FC018481958197FD03C060E0BB
:102C30000E94812B6AE070E080E090E00C94712AA1
:102C4000FC018481958197FD03C061E00E94812B86
:102C50006AE070E080E090E00C94712A0C94482DBA
:102C60000F931F93CF93DF9300D0CDB7DEB78B01C7
:102C7000BE016F5F7F4F0E94032449815A8170E03B
:102C800060E0F8014083518362837383082E000C57
:102C9000990B0F900F90DF91CF911F910F91089595
:102CA000CF93DF9300D0CDB7DEB7BE016F5F7F4F0C
:102CB0000E94E32381E090E029813A812C3A3E4E44
:102CC00011F490E080E09195819591090F900F901B
:102CD000DF91CF9108950E940B20082E000C990BD4
:102CE0000895AF92BF92CF92DF92EF92FF920F932F
:102CF0001F93CF93DF938C016B017A01590182E519
:102D000090E0F801978386837183608353834283C5
:102D1000358324838DE090E00E94462DEC0180E70E
:102D200091E099838883DB82CA82FD82EC82BF8234
:102D3000AE8282E58887DA86C986CE0108969C87AE
:102D40008B87F7FC04C061E08E2D0E94452BF801B3
:102D5000D187C087DF91CF911F910F91FF90EF90A6
:102D6000DF90CF90BF90AF900895CF93DF9300D0C6
:102D7000CDB7DEB7BE016F5F7F4FFC0180859185C7
:102D80000E94E32381E029813A812C3C3A4E09F0EC
:102D900080E00F900F90DF91CF910895CF93DF9354
:102DA000EC010E94B51691E0882341F08885998551
:102DB0000E940B2091E0811101C090E0892FDF91EA
:102DC000CF910895FC01808591850C943F1E60E0B1
:102DD000FC01808591850C948B1FFC018085918579
:102DE0000C94471EFC01808591850C944F1EFC01BC
:102DF000808591850C94DD2062E070E0FC01808587
:102E000091850C940B23FC01808591850C949F2364
:102E1000CF93DF931F92CDB7DEB7BE016F5F7F4FB9
:102E2000FC01808591850E94072281E099819111A2
:102E300001C080E00F90DF91CF910895CF93DF9391
:102E400000D0CDB7DEB7BE016F5F7F4FFC0180853C
:102E500091850E94032489819A810F900F90DF91C0
:102E6000CF910895CF93DF9300D0CDB7DEB7BE01E9
:102E70006F5F7F4FFC01808591850E949B24898133
:102E80009A810F900F90DF91CF910895CF93DF93A8
:102E90001F92CDB7DEB7BE016F5F7F4FFC0180850B
:102EA00091850E94232289810F90DF91CF9108950F
:102EB000FC01808591850C94A21ECF93DF9300D0F6
:102EC000CDB7DEB7BE016F5F7F4FFC018085918576
:102ED0000E94D12589819A810F900F90DF91CF9127
:102EE0000895FC01808591850C94C71ECF93DF93D4
:102EF00000D0CDB7DEB7BE016F5F7F4FFC0180858C
:102F000091850E94F92589819A810F900F90DF9118
:102F1000CF910895FC01808591850C94571EFC018A
:102F2000808591850C947320EF92FF920F931F93ED
:102F3000CF93DF9300D0CDB7DEB78C017B010E9429
:102F40005D179A838983AE014F5F5F4FB701F80128
:102F5000808591850E9421240F900F90DF91CF9161
:102F60001F910F91FF90EF900895EF92FF920F93B2
:102F70001F93CF93DF9300D0CDB7DEB78C017B01D9
:102F80000E9476179A838983AE014F5F5F4FB70126
:102F9000F801808591850E94DB240F900F90DF91CE
:102FA000CF911F910F91FF90EF9008952F923F9234
:102FB0004F925F926F927F928F929F92AF92BF9249
:102FC000CF92DF92EF92FF920F931F93CF93DF93F5
:102FD000CDB7DEB760970FB6F894DEBF0FBECDBF9A
:102FE000988B8F877E836D8382E090E0AF85B88970
:102FF0008D939C93642F70E090E080E00E945E2EA1
:10300000EF85F88966837783808791872BED3FE092
:1030100049E450E40E94152F6B017C012D813E8113
:10302000B90190E080E00E945E2E9B01AC01C701D7
:10303000B6010E94BD2D0E948A2F4B015C01AF8515
:10304000B8891A968D929D92AD92BC921D97AC0153
:103050009B010E94152F6B017C01EF85F889C686C4
:10306000D786E08AF18AA5019401C501B4010E94C6
:103070004C2D6F83788789879A87A701960160E036
:1030800070E080E89FE30E944B2D9B01AC010E9401
:103090004C2D6B877C878D879E870F8518890A5EEC
:1030A0001F4F312C212CB101032C000C880B990BE4
:1030B0000E94602E9B01AC010E944C2D20E030E06C
:1030C00040E85FE30E944C2D2BED3FE049E450E4E3
:1030D0000E94152F20E030E040E05EE30E94152FB3
:1030E0000E94822F69837A838B839C832F8138850A
:1030F00049855A850E94152F2B013C01AC019B018B
:10310000C701B6010E944C2D20E030E040E85FE3AB
:103110000E944C2D4B015C01AC019B01C701B60123
:103120000E94BD2DD8016D937D938D939D938D014C
:10313000A50194016B857C858D859E850E94BD2DA2
:10314000F8016483758386839783A3019201C70185
:10315000B6010E944B2D20E030E040E85FE30E9482
:103160004C2D9058A50194010E94BD2DD8011C96AC
:103170006D937D938D939C931F97F801148A158A04
:10318000168A178A5C961D921D921D921C925F975B
:1031900014A215A216A217A2F1E02F16310491F580
:1031A00089819A81AB81BC81EF85F889828B938B71
:1031B000A48BB58BDF0182829382A482B582AA5B45
:1031C000BF4FBA83A983ED81FE813C97F8F41D922D
:1031D0001C9260960FB6F894DEBF0FBECDBFDF9194
:1031E000CF911F910F91FF90EF90DF90CF90BF9004
:1031F000AF909F908F907F906F905F904F903F9097
:103200002F90089522242394312C4DCFA981BA8187
:103210002D923C92DECF2F923F924F925F926F920F
:103220007F928F929F92AF92BF92CF92DF92EF9256
:10323000FF920F931F93CF93DF93CDB7DEB72897FD
:103240000FB6F894DEBF0FBECDBF7A836983BC0191
:1032500090E080E00E945E2E6B017C01E981FA81A2
:10326000EA5BFF4F80819181892B09F475C0A981A8
:10327000BA812D903C9011975696B887AF8310E095
:1032800000E0021513050CF067C0EF81F885FE839E
:10329000ED8340A051A062A073A080A591A5A2A536
:1032A000B3A589839A83AB83BC832085318542850E
:1032B0005385C301B2010E94152F4B015C01EF81C0
:1032C000F885208931894289538969817A818B8186
:1032D0009C810E94152F9B01AC01C501B4010E9485
:1032E0004C2DA70196010E944C2D4B015C01AF8132
:1032F000B88558968D929D92AD92BC925B9714962C
:10330000B887AF83A3019201C301B2010E944C2D83
:10331000A50194010E944C2D29813A814B815C8149
:103320000E944C2DED81FE812081318142815381AB
:103330000E94152F6B017C01AF81B88594964D9248
:103340005D926D927C929797FD01848E958EA68EEC
:10335000B78E0F5F1F4F95CFC701B6010E942F2E6A
:10336000CB0128960FB6F894DEBF0FBECDBFDF911C
:10337000CF911F910F91FF90EF90DF90CF90BF9072
:10338000AF909F908F907F906F905F904F903F9005
:103390002F900895FC0190E030E020E0961731F086
:1033A00041915191240F351F9F5FF8CF692F70E035
:1033B000C9010E943F30CB010895CF92DF92EF9276
:1033C000FF92362FFC0120E060E070E0CB01231774
:1033D00051F0C190D190E190F1906C0D7D1D8E1D4A
:1033E0009F1D2F5FF4CF30E050E040E00E94893015
:1033F000CA01B901FF90EF90DF90CF900895CF926E
:10340000DF92EF92FF920F931F93CF93DF93EC0124
:103410006B017A01649F8001659F100D749F100DF0
:103420001124C8010E94C83099838883080F191F8E
:103430001B830A83DD82CC821F821E82F986E88686
:103440009B878A879D878C87DF91CF911F910F91F2
:10345000FF90EF90DF90CF900895CF93DF93EC0132
:103460008E819F81488559852C813D8182179307E4
:1034700091F42C853D85240F351F3D872C87EA81EB
:10348000FB812E173F0721F4288139813D872C8746
:1034900001979F838E838A859B850E945E338A85F0
:1034A0009B8528853985820F931F9B878A872A8170
:1034B0003B818217930721F4888199819B878A87B2
:1034C0008E819F8101969F838E83DF91CF91089596
:1034D000CF92DF92EF92FF92CF93DF936631C8F5E0
:1034E000E62FF0E0E258FE4FE081F0E098E0899F9F
:1034F000E001112430E020E060E070E0CB01AF019A
:10350000022E02C0559547950A94E2F7417055275F
:103510006A01550FEE08FF08DE01A20FB31FAD567A
:10352000BE4FAC9104C0CC0CDD1CEE1CFF1CAA9558
:10353000D2F76C297D298E299F292F5F3F4F273095
:103540003105E9F6DF91CF91FF90EF90DF90CF90BA
:10355000089560E070E0CB01F5CFE82F8FEF8E0F7C
:10356000833048F5E150FF0B83E0EE0FFF1F8A9593
:10357000E1F7ED56FE4F278181E090E0A0E0B0E05A
:1035800004C0880F991FAA1FBB1F2A95D2F740912C
:10359000C7045091C8046091C9047091CA04842B77
:1035A000952BA62BB72B8093C7049093C804A093A8
:1035B000C904B093CA0408958091C7049091C804C7
:1035C000A091C904B091CA0490688093C7049093F5
:1035D000C804A093C904B093CA0408951092C70404
:1035E0001092C8041092C9041092CA040895CF9290
:1035F000DF92EF92FF920F931F93CF938C01C0E065
:10360000F80161918F018C2F0E94681AC090C70445
:10361000D090C804E090C904F090CA04DC01CB014A
:103620008C299D29AE29BF298093C7049093C80493
:10363000A093C904B093CA04CF5FC43009F7CF91F7
:103640001F910F91FF90EF90DF90CF9008950F930F
:103650001F93CF93DF9300D000D000D0CDB7DEB75B
:103660008E010F5F1F4F26E0F80111922A95E9F7AE
:103670008031F7E29F07F8F49C01EAE0F0E0BF0137
:103680000E943F308C83CB01BF010E943F308B836F
:10369000C90164E670E00E943F30CB01BF010E9487
:1036A0003F308A83C90168EE73E00E943F3069832E
:1036B000C8010E94F71A26960FB6F894DEBF0FBE17
:1036C000CDBFDF91CF911F910F9108950F931F935D
:1036D000CF93DF93162FEA01022F682F89ED94E034
:1036E0000E94C826612F89ED94E00E944F260C0F9E
:1036F0001D2F111DC017D10731F0699189ED94E09C
:103700000E944F26F7CF89ED94E00E944B2781E07D
:10371000DF91CF911F910F9108958F929F92AF9259
:10372000BF92FF920F931F93CF93DF9300D000D0EF
:10373000CDB7DEB703E911E088E0F82E812C912C9B
:1037400054018394F80120E080E090E0DC013081B6
:10375000B501A40104C0440F551F661F771F3A9599
:10376000D2F7842B952BA62BB72B2F5F38962430BE
:1037700071F789839A83AB83BC8324E0AE014F5FEA
:103780005F4F60E088E30E94661B6CE271E080E0BE
:1037900090E00E94712AFA940F5F1F4FF110D2CF70
:1037A0000F900F900F900F90DF91CF911F910F917D
:1037B000FF90BF90AF909F908F900895CF93DF932D
:1037C00000D01F92CDB7DEB780911F0190912001EC
:1037D000A091210189839A83AB8323E0AE014F5FDF
:1037E0005F4F6DEC88E30E94661B91E0811101C080
:1037F00090E0892F0F900F900F90DF91CF91089557
:103800000C94DE1B242F6F73AC0188E30E94661BAF
:1038100091E0811101C090E0892F0895CF93DF934B
:1038200000D000D0CDB7DEB73091C7042091C804D6
:103830009091C9048091CA0439832A839B838C8325
:1038400044E060E0CE0101960E94021C0F900F90B0
:103850000F900F90DF91CF910895E0E7F0E0808125
:103860008D7F808384E08093B10081E08093B000FD
:10387000E091D304F091D40490818091D00480959C
:1038800089238083E091D104F091D20490818091CA
:10389000CF048095892380831092D00408952F92BD
:1038A0003F924F925F926F927F928F929F92AF92D0
:1038B000BF92CF92DF92EF92FF920F931F93CF931D
:1038C000DF93D82FC62F280139010E2D9A0150E021
:1038D00040E060E072E18AE790E00E9489304901AF
:1038E0005A0171E1272E71E0372E11E0F10121918B
:1038F00031911F01032E000C440B550BC501B4017F
:103900000E94893069017A01F1E0CF1AD108E108FB
:10391000F1082FEFC216D104E104F104D9F0D4F07C
:103920001F5F183019F7DF91CF911F910F91FF9012
:10393000EF90DF90CF90BF90AF909F908F907F904F
:103940006F905F904F903F902F900C942D1C908122
:10395000892BA7C08FEF9FEFDC0141145104610454
:10396000710479F00E94402A53014201E1E08E1A6D
:103970009108A108B108DC01CB01880D991DAA1D91
:10398000BB1D8093D5049093D604A093D704B09325
:10399000D8048091D004811157C08D2F90E0FC0194
:1039A000E25FFE4F44914093D004D0E0FE01E25F1D
:1039B000FE4FE491E093CF048A5D9E4FFC01249179
:1039C000E22FF0E0EE0FFF1FE65BFE4F25913491F2
:1039D0003093CE042093CD04CA5DDE4FFE012491C6
:1039E000E22FF0E0EE0FFF1FE65BFE4F25913491D2
:1039F0003093CC042093CB04FC018491E82FF0E0B9
:103A0000EE0FFF1FEA5AFE4FA591B491B093D40474
:103A1000A093D304FE01C491EC2FF0E0EE0FFF1F42
:103A2000EA5AFE4F859194919093D2048093D104E9
:103A3000EC914E2B4C93E091D104F091D204808113
:103A40009091CF04892B8083C092B3008091B20003
:103A500090E0B0E0A0E0C816D906EA06FB0614F430
:103A6000C092B20018601093B10083E08093B00060
:103A7000809170008D7F80937000E091CD04F09173
:103A8000CE0490818091D00498238091CF04E0915E
:103A9000CB04F091CC04992309F459CF90818095FF
:103AA000892380838091700082608093700041142C
:103AB00051046104710439F0011105C0C301B20160
:103AC0000E94712A30CFDF91CF911F910F91FF900B
:103AD000EF90DF90CF90BF90AF909F908F907F90AE
:103AE0006F905F904F903F902F900895CF92DF920C
:103AF000EF92FF920E94402A21E0C090D504D0901E
:103B0000D604E090D704F090D804C616D706E8068D
:103B1000F90608F420E0822FFF90EF90DF90CF901D
:103B200008951F920F920FB60F9211240F931F93B7
:103B30002F933F934F935F936F937F938F939F93B5
:103B4000AF93BF93EF93FF930E94402A0091D50457
:103B50001091D6042091D7043091D8040617170786
:103B60002807390710F40E942D1CE091CD04F09134
:103B7000CE0480819091D00489278083E091CB048A
:103B8000F091CC0480819091CF0489278083FF91AC
:103B9000EF91BF91AF919F918F917F916F915F91C5
:103BA0004F913F912F911F910F910F900FBE0F904A
:103BB0001F901895AF92BF92CF92DF92EF92FF9233
:103BC0000F931F93CF93DF9300D0CDB7DEB76C0177
:103BD000F42EE52E59016695DC0112968D919C918B
:103BE0000E94C826E982FA82F60182819381DC0173
:103BF000ED91FC910280F381E02D42E050E0BE01A6
:103C00006F5F7F4F099575010A0D1B1DF6018281BB
:103C10009381E016F10659F0D7016D917D01DC0129
:103C2000ED91FC910190F081E02D0995EFCF61E0DD
:103C30000E94D22680E00F900F90DF91CF911F91CC
:103C40000F91FF90EF90DF90CF90BF90AF900895CD
:103C50000F931F93CF93DF931F92CDB7DEB72983C6
:103C600001E010E09E012F5F3F4FFB0160810E9449
:103C7000DA1D0F90DF91CF911F910F910895FC01F4
:103C80006385748521E046E850E00C94281EFC0111
:103C90006385748520E447E850E00C94281EFC01FD
:103CA0006385748520E047E850E00C94281E0F934C
:103CB0001F93CF93DF938C01C42FD62F613108F06F
:103CC000D0E1C13120F56B3010F4CB3008F027EC97
:103CD000F801638574854FE750E0C8010E94281EF3
:103CE0008C2F8150990B9C0184E0220F331F8A9501
:103CF000E1F7D1502D2BF8016385748540E850E041
:103D0000C801DF91CF911F910F910C94281EC0E143
:103D1000DECF0F931F93CF93DF9300D0CDB7DEB7E5
:103D200039832A8302E010E09E012F5F3F4FFB01A1
:103D300060810E94DA1D0F900F90DF91CF911F914B
:103D40000F910895CF93DF93EC019B01220F331F56
:103D5000220F331F6B857C854EE150E0CE010E941F
:103D6000891E6B857C8530E020E040E250E0CE018A
:103D70000E94891E6B857C8530E020E042E250E0A5
:103D8000CE010E94891E80E0DF91CF9108951F939C
:103D9000CF93DF93EC01162F6B857C8530E020E01C
:103DA00048E150E00E94891E6B857C8530E020E070
:103DB0004AE150E0CE010E94891E80E0912F990FC8
:103DC00068EE73E00E943F309B016B857C8546E185
:103DD00050E0CE01DF91CF911F910C94891E0F937B
:103DE0001F93CF93DF9300D000D0CDB7DEB73983D8
:103DF0002A831B830C8304E010E09E012F5F3F4F5A
:103E0000FB0160810E94DA1D0F900F900F900F90C0
:103E1000DF91CF911F910F9108959F92AF92BF9222
:103E2000CF92DF92EF92FF920F931F93CF93DF9386
:103E300000D0CDB7DEB77C01A42E952EB22EC32EB6
:103E4000162F169585E0D82E612FD70112968D91E9
:103E50009C910E94C8269982AA82F701828193814F
:103E6000DC01ED91FC910280F381E02D42E050E015
:103E7000BE016F5F7F4F099560E0F70182819381FA
:103E80000E94D226882319F0DA94D110DDCF402F7A
:103E9000612FD70112968D919C910E9448270B2D7E
:103EA0001C2DF70182819381DC01ED91FC9100844E
:103EB000F185E02D0995892B71F0F70182819381BD
:103EC000DC01ED91FC910284F385E02D0995F80168
:103ED00081938F01E6CF80E00F900F90DF91CF911B
:103EE0001F910F91FF90EF90DF90CF90BF90AF9018
:103EF0009F9008950F931F9301E010E0FB016081F4
:103F00000E940D1F91E0811101C090E0892F8195E1
:103F10001F910F910895FF920F931F93CF93DF93FB
:103F20001F92CDB7DEB78C01F62EFC016385748538
:103F30009E012F5F3F4F40E350E00E947A1F29818E
:103F40002F7E298380E0F0FE80E1282BF801638535
:103F5000748540E350E0C8010E94281E0F90DF9155
:103F6000CF911F910F91FF900895EF92FF920F93C1
:103F70001F93CF93DF931F92CDB7DEB77B01FC0178
:103F8000638574859E012F5F3F4F40E350E00E94A0
:103F90007A1F998194FB002700F910E0F1E00F27C8
:103FA000F70100830F90DF91CF911F910F91FF9048
:103FB000EF900895EF92FF920F931F93CF93DF93AB
:103FC00000D0CDB7DEB78C017B01BE016F5F7F4FA4
:103FD0000E94B51FF801638574859E012E5F3F4FD7
:103FE00041E350E0C8010E947A1F811108C09A8104
:103FF0009170298129130CC091E0F70190830F90F3
:104000000F90DF91CF911F910F91FF90EF90089546
:10401000F7011082F4CFCF92DF92EF92FF920F93CD
:104020001F93CF93DF931F92CDB7DEB78C01198218
:1040300093EBC92E91E0D92E2DE2E22EF12CF60160
:1040400021916F01F80163857485A701C8010E9461
:10405000281EFFEFEF1AFF0A88E8E816F10479F747
:10406000C8010E94471E67E670E080E090E00E9471
:10407000712A83E3F82E8981811110C0BE016F5F20
:104080007F4FC8010E94DA1FFA94FF2051F161E0CE
:1040900070E080E090E00E94712AEDCF1982C801A3
:1040A0000E943F1EC8010E944F1EF801638574855F
:1040B00029E048E050E0C8010E94281EF80163850D
:1040C000748520E04BE050E0C8010E94281E0F904C
:1040D000DF91CF911F910F91FF90EF90DF90CF90E4
:1040E000089589EFF4CF0F931F93CF93DF931F921F
:1040F000CDB7DEB78C011982FC016385748521E898
:1041000048E050E00E94281EF8016385748522E98A
:104110004BE050E0C8010E94281EC8010E94471EC3
:104120008981811107C0BE016F5F7F4FC8010E9466
:10413000DA1FF6CF1982C8010E943F1EC8010E94F3
:104140004F1EF8016385748529E048E050E0C801FE
:104150000E94281EF8016385748520E04BE050E042
:10416000C8010E94281E0F90DF91CF911F910F91DF
:1041700008950F931F93CF93DF931F92CDB7DEB7B0
:104180008B01FC01638574859E012F5F3F4F4BE4DB
:1041900050E00E947A1F998121E030E0943121F0B3
:1041A0009A3029F422E030E0F801318320830F9027
:1041B000DF91CF911F910F910895DF92EF92FF92BF
:1041C0000F931F93CF93DF9300D0CDB7DEB78C0151
:1041D0007B01BE016F5F7F4F0E94B920D82E89817D
:1041E0009A81009709F4ABC0019709F09AC082E365
:1041F000E816F10409F465C070F5F4E1EF16F10476
:1042000009F449C081E2E816F10409F454C0EFE072
:10421000EE16F10409F093C0F801638574852DE171
:1042200030E04EE550E0C8010E94891EF801638528
:10423000748527E230E041E650E0C8010E94891E03
:104240008D2D0F900F90DF91CF911F910F91FF90C7
:10425000EF90DF900895F8ECEF16F10409F441C0F7
:1042600084EFE81681E0F80609F44BC0E4E6EE16A8
:10427000F10409F064C0F8016385748521EE32E031
:104280004EE550E0C8010E94891EF80163857485DF
:1042900028E833E0D0CFF8016385748521E530E06C
:1042A0004EE550E0C8010E94891EF80163857485BF
:1042B0002EE630E0C0CFF8016385748526ED30E04E
:1042C000EFCFF801638574852EEA31E04EE550E0CA
:1042D000C8010E94891EF8016385748528EE31E0CB
:1042E000AACFF8016385748521EE33E04EE550E0F6
:1042F000C8010E94891EF8016385748526E934E0AF
:104300009ACFF8016385748521E935E04EE550E0E8
:10431000C8010E94891EF8016385748521EC35E08F
:104320008ACFF2E3EF16F10409F441C058F4E4E156
:10433000EE16F10431F1F1E2EF16F10491F1DD2412
:10434000D3947ECF88ECE816F10409F440C0E4EF82
:10435000EE16E1E0FE0609F44AC0F4E6EF16F104B9
:1043600071F7F801638574852CEC31E04EE550E07F
:10437000C8010E94891EF801638574852AEE31E028
:104380005ACFF801638574852EE130E04EE550E0A8
:10439000C8010E94891EF8016385748522E230E01D
:1043A0004ACFF8016385748520E630E079CFF801C3
:1043B000638574852DEA30E04EE550E0C8010E9427
:1043C000891EF8016385748526EC30E034CFF8014E
:1043D0006385748529ED32E04EE550E0C8010E9406
:1043E000891EF8016385748528EF32E024CFF80137
:1043F000638574852FE834E04EE550E0C8010E94E3
:10440000891EF8016385748524EA34E014CF0F9384
:104410001F93CF93DF931F92CDB7DEB78B01198225
:10442000FC01638574859E012F5F3F4F45EE50E090
:104430000E947A1F9981F80190830F90DF91CF91AC
:104440001F910F9108950F931F93CF93DF931F92A6
:10445000CDB7DEB78B01FC01638574859E012F5FAC
:104460003F4F49E850E00E947A1FE981EF71E35025
:10447000E53108F03DC0F0E0E05CFD4D0C94A83063
:104480006822622266225F226C22642255227822F0
:1044900078226E2276227822782278227822702260
:1044A0006A22782278227222742219829981F80174
:1044B00090830F90DF91CF911F910F91089591E01C
:1044C0009983F4CF92E0FCCF93E0FACF94E0F8CF59
:1044D00095E0F6CF96E0F4CF97E0F2CF99E0F0CFF9
:1044E0009AE0EECF9BE0ECCF9CE0EACF9DE0E8CFF6
:1044F0009FEFE6CFEF92FF920F931F93CF93DF933F
:1045000000D0CDB7DEB7790119821A8202E010E03F
:104510009E012F5F3F4FFB0160810E940D1F8111A3
:104520000AC0298130E0322F22279A81290F311DBC
:10453000F701318320830F900F90DF91CF911F916E
:104540000F91FF90EF9008950F931F93CF93DF93F8
:1045500000D0CDB7DEB78B01FC01638574859E0169
:104560002F5F3F4F4EE550E00E947A2229813A8129
:104570002E3AF1E03F0709F445C0D0F4213531056A
:10458000F1F150F42D31310571F12E313105B9F1D0
:10459000F801118210822CC02D3A310599F1263D87
:1045A000310519F02036310599F721E230E01DC0C0
:1045B000213EE2E03E0749F150F42C3C91E03907FE
:1045C00021F1293D324021F728EC30E00EC02F3890
:1045D000F4E03F07E9F0213995E03907C9F0213EC1
:1045E0003340B1F6F1CF2FE030E0F8013183208382
:1045F0000F900F90DF91CF911F910F91089524E1BB
:1046000030E0F3CF22E330E0F0CF24E630E0EDCF2E
:1046100024EF31E0EACFEF92FF920F931F93CF93F5
:10462000DF9300D0CDB7DEB78C017B01BE016F5F99
:104630007F4F0E94A42281E0E816F10499F0E2E0A5
:10464000EE16F10409F447C069817A81C8010E941D
:10465000DD200F900F90DF91CF911F910F91FF9070
:10466000EF900895F8016385748524E14BE450E0F0
:10467000C8010E94281EF8016385748527E040E682
:1046800050E0C8010E94281EF8016385748525E06A
:1046900043E650E0C8010E94281EF8016385748536
:1046A00028E349E650E0C8010E94281EF80163850E
:1046B000748525E037E048E750E0C8010E94891E74
:1046C000F8016385748526E036E04AE750E0C801CA
:1046D0000E94891EB9CFF801638574852AE04BE4F6
:1046E00050E0C8010E94281EF801638574852FE000
:1046F00040E650E0C8010E94281EF80163857485D9
:104700002DE043E650E0C8010E94281EF8016385B1
:10471000748528EB49E650E0C8010E94281EF80184
:10472000638574852DE03FE048E750E0C8010E94B2
:10473000891EF801638574852EE03EE0C6CFDF92C6
:10474000EF92FF920F931F93CF93DF9300D0CDB7DB
:10475000DEB77C018B01FC01638574859E012F5FB0
:104760003F4F4EED50E00E947A22D82E89819A81E7
:1047700093709A838983809FB001819F700D909F71
:10478000700D112490E080E00E945E2E2AE939E944
:1047900049E85FE30E94152F0E942F2E8B019C0198
:1047A000F701638574854CE650E0C7010E94EF1E57
:1047B0008D2D0F900F90DF91CF911F910F91FF9052
:1047C000EF90DF9008950F931F93CF93DF9300D066
:1047D000CDB7DEB78B011A821982FC01638574851F
:1047E0009E012F5F3F4F4FE051E00E947A222981C6
:1047F0003A81F801318320830F900F90DF91CF91A0
:104800001F910F9108950F931F93CF93DF9300D0C3
:10481000CDB7DEB78B01FC01638574859E012F5FE8
:104820003F4F46E950E00E947A2229813A81F801FF
:10483000318320830F900F90DF91CF911F910F91C3
:1048400008958F929F92BF92CF92DF92EF92FF9244
:104850000F931F93CF93DF9300D01F92CDB7DEB796
:104860008C017B014A01FC016385748530E020E006
:104870004EE150E00E94891EF8016385748530E0A6
:1048800020E040E250E0C8010E94891EF8016385E3
:10489000748530E020E042E250E0C8010E94891EA9
:1048A000C8010E94471E92E3B92ED12CC12C8B81E6
:1048B000811107C0BE016D5F7F4FC8010E94DA1FE2
:1048C000F6CF1B82BE016F5F7F4FC8010E94032499
:1048D000C8010E943F1E89819A81C80ED91EBA94D0
:1048E000B110E5CFC8010E944F1EC60162E370E01F
:1048F0000E9453309701261B370BF401318320832C
:10490000220F331F220F331FF801638574854EE198
:1049100050E0C8010E94891E0F900F900F90DF9108
:10492000CF911F910F91FF90EF90DF90CF90BF90AC
:104930009F908F9008950F931F93CF93DF9300D094
:10494000CDB7DEB78B01FC01638574859E012F5FB7
:104950003F4F48E950E00E947A2229813A8193E052
:10496000220F331F9A95E1F7F801318320830F90CE
:104970000F90DF91CF911F910F9108950F931F9387
:10498000CF93DF9300D0CDB7DEB78B01FC016385F9
:1049900074859E012F5F3F4F4CE850E00E947A22C1
:1049A0009A81F801908311820F900F90DF91CF913F
:1049B0001F910F9108952F923F924F925F926F92A5
:1049C0007F928F929F92AF92BF92CF92DF92EF929F
:1049D000FF920F931F93CF93DF93CDB7DEB72A9744
:1049E0000FB6F894DEBF0FBECDBF8C011B015A87F6
:1049F00049871F821E821D82DC011B966D917C916E
:104A000030E020E046E150E00E94891EC8010E948B
:104A1000471EB2E3B887C12CD12C7601260137019D
:104A2000570146018F81811107C0BE01695F7F4F29
:104A3000C8010E94DA1FF6CF1F82BE016F5F7F4F51
:104A4000C8010E949B24BE016B5F7F4FC8010E947A
:104A50000324C8010E943F1E6D817E8190E080E0AA
:104A60000E945E2E9B01AC01C301B2010E944C2D3D
:104A70002B013C01BE016D5F7F4FC8010E94BE2427
:104A80006B817C8190E080E00E945E2E9B01AC01F6
:104A9000C701B6010E944C2D6B017C0169817A81AE
:104AA00090E080E00E945E2E9B01AC01C501B40144
:104AB0000E944C2D4B015C01E885E150E887E11133
:104AC000B1CFC8010E944F1E20E030E048E452E41C
:104AD000C301B2010E94BD2D2B013C01B10190E048
:104AE00080E00E945E2E9B01AC01C301B2010E94D6
:104AF000BD2D9B01AC0160E070E080E89FE30E9467
:104B00004B2D2B013C0120E030E048E452E4C5018C
:104B1000B4010E94BD2D9B01AC01C301B2010E94F2
:104B2000152F20E030E040E054E40E94152F4B01A7
:104B30005C0120E030E048E452E4C701B6010E9485
:104B4000BD2D9B01AC01C501B4010E94BD2D0E9489
:104B50002F2EA985BA856D937C93D8011B96ED9174
:104B6000FC919B0146E150E0BF01C8010E94891EF3
:104B70002A960FB6F894DEBF0FBECDBFDF91CF915E
:104B80001F910F91FF90EF90DF90CF90BF90AF906B
:104B90009F908F907F906F905F904F903F902F905D
:104BA00008950F931F93CF93DF9300D0CDB7DEB757
:104BB0008B01FC01638574859E012F5F3F4F4EE1A1
:104BC00050E00E947A2229813A8193E0220F331F1C
:104BD0009A95E1F745E0369527954A95E1F7F80172
:104BE000318320830F900F90DF91CF911F910F9110
:104BF00008950F931F93CF93DF9300D0CDB7DEB707
:104C00008B01FC01638574859E012F5F3F4F46E158
:104C100050E00E947A2269817A8148EE53E0649FD5
:104C20009001659F300D749F300D1124932F969540
:104C3000F801908311820F900F90DF91CF911F9117
:104C40000F91089590E080E008958091090590917A
:104C50000A05891B990B089590910A058091090511
:104C60002FEF3FEF981748F4E92FF0E0E55FFA4F98
:104C7000208130E09F5F90930A05C9010895E0917B
:104C80000A0580910905E81730F4F0E0E55FFA4F76
:104C9000808190E008958FEF9FEF08950895CF935E
:104CA000DF931F92CDB7DEB769832091E5042223FD
:104CB000F9F02091E604203258F021E030E0FC01C8
:104CC0003383228390E080E00F90DF91CF910895AD
:104CD0008091E704E82FF0E0E851FB4F9981908341
:104CE0008F5F8093E7048093E60481E090E0ECCF4F
:104CF00061E0CE0101960E94A528F7CFCF92DF9206
:104D0000EF92FF920F931F93CF93DF937C01CB0120
:104D10008A012091E504222389F0EB016B01C40E86
:104D2000D51ECC15DD0569F06991D701ED91FC9197
:104D30000190F081E02DC7010995F3CF642F0E9407
:104D4000A528C801DF91CF911F910F91FF90EF909F
:104D5000DF90CF90089510920A05109209051092E5
:104D6000E7041092E6040C945F279A01AB0160E01F
:104D700072E18AE790E00E946730205131094109D1
:104D8000510956954795379527952093B800089572
:104D900081E08093E504609308051092E704109287
:104DA000E60408950F93062F21E04091E60468EE93
:104DB00074E0809108050E9427281092E704109261
:104DC000E6041092E5040F9108954F925F926F925E
:104DD0007F92AF92BF92CF92EF92FF920F931F9369
:104DE000CF93DF935C01F62ED42F28013901EE20FA
:104DF00019F10E94C826CE2DC43008F0C3E0C1507E
:104E0000B8F028E0C29FC0011124A301920104C0A0
:104E100056954795379527958A95D2F7B901D501CB
:104E2000ED91FC910190F081E02DC5010995E7CF4E
:104E300060E0C5010E94D2264D2FD13208F040E239
:104E40002C2D6BE075E08F2D0E94B62710920A057D
:104E500080930905DF91CF911F910F91FF90EF9003
:104E6000CF90BF90AF907F906F905F904F900895DC
:104E7000CF92EF920F931F93C22EE12C00E010E02F
:104E800098010E94E5261F910F91EF90CF90089511
:104E900021E00C94382761E00C94D226E9EDF4E08F
:104EA0001382128288EE93E0A0E0B0E084839583C1
:104EB000A683B78382E192E0918380830895109264
:104EC0009C0581E080939A051092990561E082E14A
:104ED0000E94812B61E083E10E94812BE9EBF0E0ED
:104EE00080818E7F808380818D7F808380E280932C
:104EF000B80085E48093BC000895882309F11092DE
:104F00002B0510922C0510922D0510922E058091E4
:104F10002B0590912C05A0912D05B0912E05803A7E
:104F20009648A140B10500F110922B0510922C0576
:104F300010922D0510922E050E945F2781E00895A2
:104F400080912B0590912C05A0912D05B0912E05F7
:104F50000196A11DB11D80932B0590932C05A09364
:104F60002D05B0932E05D3CF80E00895FF920F93C7
:104F70001F93CF93DF93D82F162F072FC42FF22E16
:104F8000413208F062C081E00E947D2780919C053B
:104F9000882329F080E00E947D278823B9F381E0EF
:104FA00080939C05F0929A059FEF90932F051092A5
:104FB00074059C0F9093730580939B0580919B05CE
:104FC000DD0FD82BD0939B05809199058130A9F5F1
:104FD0001092990581E00E947D2780919B05809326
:104FE000BB0080E00E947D27811104C08091BC003D
:104FF00083FDF3CF85EC8093BC0081E00E947D2788
:1050000080919C05813029F480E00E947D278823CF
:10501000B9F3809174058C1790F0A5E7B5E0912F56
:10502000E12FF02F8E2F891B8C1760F08C2FDF91D2
:10503000CF911F910F91FF90089585EEDCCFC09125
:105040007405EBCF8D918193EDCFC0E0EFCFEF9260
:10505000FF920F931F93CF93DF93413208F06FC0FD
:10506000E22ED42FF72E162FC82F81E00E947D2725
:1050700080919C05882329F080E00E947D27882369
:10508000B9F382E080939C0500939A058FEF80939B
:105090002F0510927405D0937305912FA5E7B5E005
:1050A000E12FFF2D8E2F891B8D17A0F110929B05EC
:1050B00080919B05CC0FC82BC0939B0580919905CF
:1050C000813059F5109299050E947D2780E00E9459
:1050D0007D27811108C080919B058093BB00809142
:1050E000BC0083FDF3CF85EC8093BC0081E00E947F
:1050F0007D27EE2049F080919C05823029F480E0E4
:105100000E947D278823A9F380912F058F3F39F4D2
:1051100080E00EC081918D93C5CF85EEE5CF809163
:105120002F05803271F080912F05803361F084E08B
:10513000DF91CF911F910F91FF90EF90089581E043
:10514000F7CF82E0F5CF83E0F3CF613298F420917E
:105150009C05243089F460935105282FA3E5B5E020
:10516000FC018E2F821B861710F080E0089581913C
:105170008D93F7CF81E0089582E0089585ED8093C7
:10518000BC0081E00E947D278091BC0084FF05C0A7
:1051900080E00E947D278823B9F310929C05089532
:1051A00085EC8093BC0010929C0508951F920F928D
:1051B0000FB60F9211242F933F934F935F936F93EA
:1051C0007F938F939F93AF93BF93EF93FF938091C0
:1051D000B900887F803609F44CC008F03FC088329F
:1051E00009F4A8C018F5803109F49CC0B8F48823EC
:1051F00009F4F9C0883009F495C0FF91EF91BF918F
:10520000AF919F918F917F916F915F914F913F915E
:105210002F910F900FBE0F901F901895883109F4B1
:1052200089C0803251F780932F0515C0803409F46E
:105230009EC048F48033B9F38833F9F680932F0584
:105240000E94D028DACF803509F485C0883509F46A
:1052500096C0883491F60E94BE28CFCF883909F4D1
:105260008CC038F5883729F050F4883611F0803733
:1052700021F683E080939C051092300557C0883852
:1052800009F47BC0803919F0803809F0B6CF8091DD
:105290003005803208F071C0E091300581E08E0F5A
:1052A000809330058091BB00F0E0EF5CFA4F808383
:1052B0003DC0803B39F0E0F4803A09F479C0883A87
:1052C00009F09BCF84E080939C05109252051092C8
:1052D0005105E0919705F091980509958091510548
:1052E00081110FC081E0809351051092530509C0D0
:1052F000803C09F476C0883C09F473C0883B09F00F
:105300007CCFE091520581E08E0F80935205F0E052
:10531000ED5AFA4F80818093BB00909152058091A5
:10532000510529C080919B058093BB0085EC80933B
:10533000BC0063CF9091740580917305981758F560
:10534000E091740581E08E0F80937405F0E0EB58D6
:10535000FA4F8081E9CFE091740581E08E0F809350
:1053600074058091BB00F0E0EB58FA4F8083909178
:105370007405809173059817C8F285E8D8CFE0913D
:10538000740581E08E0F809374058091BB00F0E07E
:10539000EB58FA4F808380919A0581115CCF81E0B0
:1053A0008093990584EA8093BC0010929C0525CFD8
:1053B0000E94D02880913005803230F4E091300591
:1053C000F0E0EF5CFA4F10826091300570E0E09100
:1053D0009505F091960581E395E0099510923005C9
:1053E0000CCF85ECE0CF10922F0535CF1F920F9296
:1053F0000FB60F9211242F933F938F939F93AF93E8
:10540000BF9380919E0590919F05A091A005B091BA
:10541000A10530919D0526E0230F2D3758F5029602
:10542000A11DB11D20939D0580939E0590939F051E
:10543000A093A005B093A1058091A2059091A3052A
:10544000A091A405B091A5050196A11DB11D809361
:10545000A2059093A305A093A405B093A505BF91C1
:10546000AF919F918F913F912F910F900FBE0F9011
:105470001F90189529E8230F0396A11DB11DD2CFC7
:105480002FB7F89460919E0570919F058091A005BB
:105490009091A1052FBF08953FB7F8948091A20580
:1054A0009091A305A091A405B091A50526B5A89B50
:1054B00005C02F3F19F00196A11DB11D3FBFBA2FA6
:1054C000A92F982F8827BC01CD01620F711D811D66
:1054D000911D43E0660F771F881F991F4A95D1F7EA
:1054E00008958F929F92AF92BF92CF92DF92EF92E8
:1054F000FF926B017C010E944C2A4B015C01C1149C
:10550000D104E104F104E9F00E944A2D0E944C2AE2
:10551000681979098A099B09683E734081059105DC
:1055200070F321E0C21AD108E108F10888EE880E74
:1055300083E0981EA11CB11CC114D104E104F10444
:1055400029F7FF90EF90DF90CF90BF90AF909F90A2
:105550008F900895789484B5826084BD84B581600D
:1055600084BD85B5826085BD85B5816085BDEEE66B
:10557000F0E0808181608083E1E8F0E0108280814A
:1055800082608083808181608083E0E8F0E08081B8
:1055900081608083E1EBF0E0808184608083E0EBD8
:1055A000F0E0808181608083E1E9F0E080818260C9
:1055B0008083808181608083E0E9F0E08081816088
:1055C0008083E1EAF0E08081826080838081816075
:1055D0008083E0EAF0E0808181608083EAE7F0E0A8
:1055E00080818460808380818260808380818E7FDF
:1055F00080838081806880831092C10008958150EB
:105600008D3008F03DC0E82FF0E0E75FF44D0C94DA
:10561000A830202B242B162B1C2B402B402B272B68
:105620002D2B312B372B402B3B2B412B8091800096
:105630008F77809380000895809180008F7DF9CFCF
:1056400084B58F7784BD089584B58F7DFBCF80911D
:10565000B0008F778093B00008958091B0008F7D67
:10566000F9CF809190008F7780939000089580917A
:1056700090008F7DF9CF8091A0008F778093A0005C
:1056800008958091A0008F7DF9CFCF93DF9390E0B4
:10569000FC01E25FFE4F24918A5D9E4FFC018491E4
:1056A0008823C9F090E0880F991FFC01EA5AFE4F49
:1056B000A591B491FC01E65BFE4FC591D4916111B7
:1056C0000DC09FB7F8948C91209582238C9388818C
:1056D000282328839FBFDF91CF910895623051F432
:1056E0009FB7F8943C91822F809583238C93E88117
:1056F0002E2BEFCF8FB7F894EC912E2B2C938FBFDE
:10570000EACF1F93CF93DF93282F30E0F901EA50BF
:10571000FF4F8491F901E25FFE4FD491F901EA5DF8
:10572000FE4FC491CC23A9F0162F81110E94FF2AAD
:10573000EC2FF0E0EE0FFF1FE65BFE4FA591B4915A
:105740008FB7F894EC91111108C0D095DE23DC934B
:105750008FBFDF91CF911F910895DE2BF8CFCF93AC
:10576000DF93282F30E0F901EA50FF4F8491F901CF
:10577000E25FFE4FD491F901EA5DFE4FC491CC2364
:10578000A1F081110E94FF2AEC2FF0E0EE0FFF1F25
:10579000E25CFE4FA591B491EC91ED2381E090E0A5
:1057A00009F480E0DF91CF91089580E090E0FACF96
:1057B000CF92DF92EF92FF926B017C01C114D10472
:1057C000E104F10441F00E943932A70196010E94E0
:1057D00089306B017C01C701B601FF90EF90DF902B
:1057E000CF900895CF92DF92EF92FF926B017C01F0
:1057F000C216D306E406F50664F4CA01B9016C19B1
:105800007D098E099F090E94D82BC60ED71EE81E5F
:10581000F91EC701B601FF90EF90DF90CF90089579
:10582000FC0180819181009711F00C9464310895FE
:10583000CF93DF93EC0188819981009711F00E944A
:105840006431198218821D821C821B821A82DF91A8
:10585000CF9108950F931F93CF93DF93EC018B01AA
:105860006F5F7F4F888199810E949132009751F03C
:10587000998388831B830A8381E0DF91CF911F91F5
:105880000F91089580E0F9CFCF93DF93EC018881E9
:105890009981892B49F08A819B818617970720F08F
:1058A00081E0DF91CF910895CE010E942A2C8823B8
:1058B000C1F38C819D81892B99F7E881F981108250
:1058C000EFCFEF92FF920F931F93CF93DF93EC01F3
:1058D0007B018A01BA010E94442C81110BC0CE01C8
:1058E0000E94182CCE01DF91CF911F910F91FF9054
:1058F000EF9008951D830C83B701888199810E94E0
:105900007033F0CFFC011182108213821282158253
:1059100014826115710551F0FB0101900020E9F737
:105920003197AF01461B570B0C94612C0895EF92F1
:10593000FF920F931F93CF93DF93EC017B018A01BA
:10594000BA010E94442C81110BC0CE010E94182C78
:10595000CE01DF91CF911F910F91FF90EF900895AD
:105960001D830C83B701888199810E944E33F0CF4B
:105970000F931F93CF93DF93EC018B01611571059A
:1059800071F0CB010E945533AC01B801CE010E94E9
:10599000972CCE01DF91CF911F910F9108950E9416
:1059A000182CF7CFFC01118210821382128215820B
:1059B00014820C94B82CCF93DF93EC01A881B981A9
:1059C000EB01E881F9811097F1F03097B1F4EC0127
:1059D0008C819D81892BC9F08C9190E00BC0DB01FB
:1059E00014968D919C91892B81F0808190E0919506
:1059F00081959109DF91CF910895BF01CD01DF918C
:105A0000CF910C946733309751F790E080E0F2CF5C
:105A1000FC0144815581FB012481358142175307E4
:105A200029F40E94DB2C21E0892B09F020E0822F51
:105A30000895FC0124813581232B31F421E0FB0101
:105A4000672B49F4822F089580819181611571053A
:105A500039F421E0FC0180818823A1F320E0F2CF1A
:105A60000E94673321E0892B69F3F8CF08950E94E3
:105A7000AA2A0E94362D0E949608C0E0D0E00E941B
:105A80005E0A2097E1F30E940000F9CF0C94C83021
:105A90000C94643108955058BB27AA270E94632DA7
:105AA0000C94D62E0E94C82E38F00E94CF2E20F0E3
:105AB00039F49F3F19F426F40C94C52E0EF4E095AA
:105AC000E7FB0C94BF2EE92F0E94E72E58F3BA177C
:105AD000620773078407950720F079F4A6F50C9404
