:100000000C94B3000C94DB000C94DB000C94DB002C
:100010000C945D080C94DB000C94DB000C94CA1B60
:100020000C94DB000C94DB000C94DB000C94DB00E4
:100030000C94DB000C94DB000C94DB000C94DB00D4
:100040000C94F4290C94DB000C94DB000C94DB0082
:100050000C94DB000C94DB000C94DB000C94DB00B4
:100060000C94D4280C94DB000C94DB000C94340822
:100070000C94DB000C94DB000C94DB000C94DB0094
:100080000C94DB000C94DB000C94DB000C94DB0084
:100090000C94DB000C94DB000C94DB000C94DB0074
:1000A0000C94DB000C94DB000C94DB000C94DB0064
:1000B0000C9487080664EC1B3C04BC163E3BE5B977
:1000C0003CC93C37C29E5A3D660498083EEA69AA7C
:1000D000AA3E000000803F05A84CCDB2D44EB938EE
:1000E00036A9020C50B9918688083CA6AAAA2ABE55
:1000F000000000803F00090C0D0800020100000311
:1001000004070000000000000000000000000102E1
:100110000408102040800102040810200102040895
:10012000102004080102040404040404040402026C
:100130000202020203030303030305050505000091
:1001400000002300260029002C00000000002500EC
:1001500028002B002E0000000000240027002A00A9
:100160002D00F3134C2711241FBECFEFD8E0DEBFC4
:10017000CDBF12E0A0E0B1E0E6EAF7E602C00590EC
:100180000D92A032B107D9F725E0A0E2B2E001C09C
:100190001D92AA3AB207E1F710E0C3EBD0E004C029
:1001A0002197FE010E94AD30C13BD107C9F70E94E3
:1001B000352D0C94D1330C940000FC01862FA2E362
:1001C000B0E0B383A283A8E5B2E0B583A483A8EE30
:1001D000B3E0B783A6831286148613861686158627
:1001E000108A1786128A118A148A138A168A158A27
:1001F000108E178A128E118E148E138E168E158EF7
:1002000010A2178E12A211A216A215A210A617A252
:1002100012A611A614A613A660837183452B41F084
:100220001186108662E0211101C060E00C94432B1E
:1002300041E050E051874087F5CFFC017383628332
:100240000895FC01758364830895FC0177836683B8
:100250000895FC01748763870895FC01728B618B9C
:100260000895FC01728F618F0895CF92DF92EF9213
:10027000FF921F93CF93DF93EC01162F0E943E2A2B
:100280006B017C018BA59CA5009761F481E090E057
:1002900011119EC0DF91CF911F91FF90EF90DF90E1
:1002A000CF9008958130910509F04CC08DA59EA591
:1002B000AFA5B8A9B701A601481B590B6A0B7B0B68
:1002C000111115C08A819B81B0E0A0E04817590741
:1002D0006A077B0718F41CA61BA6DCCF82E090E01F
:1002E0009CA78BA7C9AADAAAEBAAFCAAD3CF8E81B6
:1002F0009F81B0E0A0E084179507A607B70750F6E6
:1003000081E08A87EF89F88D309709F00995E98DAA
:10031000FA8D309709F00995EB8DFC8D309719F027
:100320008D8D9E8D0995EDA1FEA1309709F009955F
:10033000EFA1F8A5309719F089A59AA5099586E04F
:1003400090E0CECF8230910509F049C089899A8921
:10035000892B21F48B899C89892B99F08DA59EA5E9
:10036000AFA5B8A9B701A601481B590B6A0B7B0BB7
:100370008C819D81B0E0A0E084179507A607B707A0
:1003800070F4EB85FC85309709F00995ED85FE85C5
:10039000309709F4A0CF8F85988909959CCF1123B8
:1003A00009F478CF89A99AA9ABA9BCA9B701A6017C
:1003B000481B590B6A0B7B0B8A819B81B0E0A0E044
:1003C00084179507A607B70708F064CF83E090E08D
:1003D0009CA78BA7CDA6DEA6EFA6F8AA5BCF83309D
:1003E000910529F5111156CF8DA59EA5AFA5B8A9E8
:1003F000B701A601481B590B6A0B7B0B8A819B81B5
:10040000B0E0A0E084179507A607B70708F042CF31
:10041000E989FA89309709F00995EB89FC893097C9
:1004200019F08D899E8909951CA61BA65BCF06979E
:1004300009F030CF11110DC01A86EF8DF8A1309759
:1004400009F00995E9A1FAA1309771F38BA19CA15C
:10045000EACF81E08A87EDA1FEA1309709F00995E6
:10046000EFA1F8A5309709F415CF89A59AA5DF91DA
:10047000CF911F91FF90EF90DF90CF900994CF9391
:10048000DF93EC018881998197FD0EC00E94AD2B0E
:1004900061E0288539852817390709F060E0CE0129
:1004A000DF91CF910C943501DF91CF91089508959C
:1004B00008951F93CF93DF93EC01162F0E947C3396
:1004C000181739F0612FCE01DF91CF911F910C9455
:1004D0008433DF91CF911F9108950C947C33FB01FD
:1004E00094878387DC0118967C936E9317972585F4
:1004F0003685232B29F41D968D919C9196878587AF
:10050000CF010895DC01FB01968385831A967C93C5
:100510006E93199783859485892B31F41B968D9161
:100520009C911C979487838785859685892B29F4D0
:100530001D968D919C9196878587CF010895FB012B
:1005400090878783DC011C967C936E931B9725858F
:100550003685232B29F41D968D919C91968785874E
:10056000CF010895EF92FF920F931F93CF93DF93E4
:10057000CDB7DEB72C970FB6F894DEBF0FBECDBF58
:100580008C01FB01DC016D917C911197E080F18081
:100590006115710509F43FC0E114F10471F0CE0159
:1005A00001960E94802CB701CE0101960E94172D62
:1005B00011E081111EC010E01CC062817381CE0168
:1005C00001960E94D02CF80160817181CE010796BE
:1005D0000E94802CBE016F5F7F4FCE0107960E9464
:1005E000062D11E0811101C010E0CE0107960E9496
:1005F0000E2CCE0101960E940E2C812F2C960FB648
:10060000F894DEBF0FBECDBFDF91CF911F910F9148
:10061000FF90EF900895E114F10441F012966D916E
:100620007C91CE0101960E94D02CBDCF6281738156
:10063000CE0107960E94D02CF80162817381CE0111
:1006400001960E94D02CBE01695F7F4FCE010196BA
:100650000E94062D11E0811101C010E0CE0101962B
:100660000E940E2CCE010796C6CF0F931F93CF93F7
:10067000DF936115710561F08B01EC01E989FA895D
:10068000309721F06F857889C8010995188B0F87FD
:10069000DF91CF911F910F910895DC011F96ED918D
:1006A000FC91618572856115710529F0DB011E964B
:1006B000FC93EE931D970C943503CF93DF93CDB746
:1006C000DEB72F970FB6F894DEBF0FBECDBF809177
:1006D0000F01882379F18091FD03882341F185EE94
:1006E00093E00E944D03E091F403F091F5038FE055
:1006F000DE01119601900D928A95E1F767EC73E0A7
:10070000CE0101960E94B202882321F010927A0451
:1007100081E00BC068EB73E0CE0101960E94B2024B
:10072000882389F081E080937A048093770481E0C4
:100730008093FA032F960FB6F894DEBF0FBECDBF9D
:10074000DF91CF91089569EA73E0CE0101960E948E
:10075000B202882321F082E080937A04D9CF6BE83B
:1007600073E0CE0101960E94B202882319F0109224
:100770001001CECF6CE773E0CE0101960E94B20269
:10078000882321F081E080931001CFCF6DE673E0E4
:10079000CE0101960E94B202882321F082E080936C
:1007A0001001B6CF65EF72E0CE0101960E94B20251
:1007B000882321F081E08093B804B9CF64E073E02E
:1007C000CE0101960E94B202882311F082E0F3CF9D
:1007D00066EE72E0CE0101960E94B202882319F003
:1007E0001092B804A4CF68EC72E0CE0101960E948A
:1007F000B202882319F01092780499CF69EB72E065
:10080000CE0101960E94B202882321F083E08093FA
:1008100078048DCF6AEA72E0CE0101960E94B2029E
:10082000882311F081E0F3CF60E473E0CE010196FC
:100830000E94B202882319F01092760478CF6FE4F8
:1008400073E0CE0101960E94B202882321F082E07B
:10085000809376046CCF61E373E0CE0101960E9431
:10086000B202882311F081E0F3CF62E273E0CE019F
:1008700001960E94B202882311F083E0E9CF6CE870
:1008800072E0CE0101960E94B202882369F0809145
:100890007B048F5F80937B0480917B04833008F41A
:1008A00046CF10927B0443CF6EE672E0CE010196F4
:1008B0000E94B202882309F43ACF80910D019091F1
:1008C0000E018C599F4F90930E0180930D018091E2
:1008D0000D0190910E01813D974008F428CF84E6E8
:1008E00090E090930E0180930D0121CF1F93CF9341
:1008F000DF93CDB7DEB72F970FB6F894DEBF0FBEEC
:10090000CDBF8091FD03882309F4A8C080910F0119
:10091000882309F4A3C0E091F403F091F5038FE07C
:10092000DE01119601900D928A95E1F766ED73E074
:10093000CE0101960E94B202811158C067ED72E0AB
:10094000CE0101960E94B202811150C06EE573E0A3
:10095000CE0101960E94B202811148C063E173E0AA
:10096000CE0101960E94B202811140C06AE973E093
:10097000CE0101960E94B202811138C06BE972E08B
:10098000CE0101960E94B202811130C06DE772E083
:10099000CE0101960E94B202811128C060E572E08A
:1009A000CE0101960E94B20281112BC161E472E076
:1009B000CE0101960E94B202811123C162E372E06E
:1009C000CE0101960E94B20281111BC1E091F40395
:1009D000F091F503638574856115710509F481C093
:1009E000DB011E96FC93EE931D977BC0E091F40310
:1009F000F091F503678170856115710529F0DB01C0
:100A00001E96FC93EE931D9785EE93E00E943503AE
:100A100066ED73E0CE0101960E94B2028823F1F1E7
:100A200080917A04811106C067EC73E085EE93E053
:100A30000E94350380917A04813031F468EB73E0D1
:100A400085EE93E00E94350380917A0469EA73E0B1
:100A5000823009F446C081E08093FA0380910F014F
:100A6000882391F08091FD0381110EC011E0109355
:100A7000FD0365EE73E0CB010E94350385EE93E044
:100A80000E944D031093FA032F960FB6F894DEBF21
:100A90000FBECDBFDF91CF911F91089567ED72E03A
:100AA000CE0101960E94B202882301F18091780460
:100AB000833031F469EB72E085EE93E00E943503F8
:100AC00080917804811106C068EC72E085EE93E0B5
:100AD0000E943503809178046AEA72E0813009F05F
:100AE000BACF85EE93E00E943503B5CF6EE573E093
:100AF000CE0101960E94B202882331F180917604E2
:100B0000811106C060E473E085EE93E00E94350336
:100B100080917604813031F461E373E085EE93E0F7
:100B20000E94350380917604823031F46FE473E0E3
:100B300085EE93E00E9435038091760462E273E0D3
:100B4000833009F088CFCDCF63E173E0CE01019609
:100B50000E94B2028823D9F08091B804823031F427
:100B600064E073E085EE93E00E9435038091B80461
:100B7000813031F465EF72E085EE93E00E94350339
:100B80008091B80466EE72E0811165CFAACF6AE960
:100B900073E0CE0101960E94B2028823E1F08091B9
:100BA0001001811106C06BE873E085EE93E00E94AE
:100BB000350380911001813031F46CE773E085EEEC
:100BC00093E00E943503809110016DE673E082305E
:100BD00009F041CF86CF6BE972E0CE0101960E9409
:100BE000B2026CE872E081117CCF6DE772E0CE0159
:100BF00001960E94B202882309F42DCF6EE672E0BE
:100C000070CF60E572E0CE0101960E94B2028823A7
:100C100021F081E0809331021ECF61E472E0CE01C9
:100C200001960E94B202882321F081E08093300275
:100C300012CF62E372E0CE0101960E94B2028823D5
:100C400009F409CF81E080932F0205CF8091FD0345
:100C5000882351F060E572E085EE93E00E94350351
:100C600081E08093FA03089580910F0191E0892734
:100C700080930F0190937C04089566ED73E085EEF8
:100C800093E00E9482026EE573E086ED93E00E949D
:100C9000820267ED72E08EE593E00E94820263E1DA
:100CA00073E087ED92E00E9482026AE973E083E1DB
:100CB00093E00E9482026BE972E08AE993E00E946D
:100CC00082026DE772E08BE992E00E94820266ED9B
:100CD00073E08DE792E00E94820260E572E08FE5AA
:100CE00092E00E946F0261E472E080E592E00E946F
:100CF000820262E372E081E492E00E94820260E597
:100D000072E082E392E00E9482026FE572E080E589
:100D100092E00E949F026FE572E081E492E00E94FF
:100D20009F026FE572E082E392E00E949F0267EC0F
:100D300073E086ED93E00E946F0268EB73E087EC4E
:100D400093E00E94820269EA73E088EB93E00E94DC
:100D5000820267EC73E089EA93E00E94820266ED0A
:100D600073E089EA93E00E949F0266ED73E088EBEE
:100D700093E00E949F0266ED73E087EC93E00E948F
:100D80009F0260E473E08EE593E00E946F0261E3EE
:100D900073E080E493E00E9482026FE473E081E3F9
:100DA00093E00E94820262E273E08FE493E00E948B
:100DB000820260E473E082E293E00E9482026EE5C8
:100DC00073E080E493E00E949F026EE573E08FE49D
:100DD00093E00E949F026EE573E081E393E00E943E
:100DE0009F026EE573E082E293E00E949F0268EC4E
:100DF00072E087ED92E00E946F0269EB72E088EC8E
:100E000092E00E9482026AEA72E089EB92E00E941C
:100E1000820268EC72E08AEA92E00E94820267ED48
:100E200072E088EC92E00E949F0267ED72E089EB2D
:100E300092E00E949F0267ED72E08AEA92E00E94CF
:100E40009F0265EF72E083E193E00E946F0264E02D
:100E500073E085EF92E00E94820266EE72E084E029
:100E600093E00E94820265EF72E086EE92E00E94BB
:100E7000820263E173E085EF92E00E949F0263E1EA
:100E800073E084E093E00E949F0263E173E086EEEA
:100E900092E00E949F026BE873E08AE993E00E946F
:100EA0006F026CE773E08BE893E00E9482026DE6CC
:100EB00073E08CE793E00E9482026BE873E08DE6BA
:100EC00093E00E9482026AE973E08BE893E00E945B
:100ED0009F026AE973E08CE793E00E949F026AE94F
:100EE00073E08DE693E00E949F026CE872E08BE96C
:100EF00092E00E946F026CE872E0CB010E948202D5
:100F00006BE972E08CE892E00E949F026EE672E06C
:100F10008DE792E00E946F026EE672E0CB010E94C4
:100F200082026DE772E08EE692E00C949F0260E030
:100F300085E10E947F2B68EC70E08DEB94E00E94CD
:100F4000961D68EC70E08DEB94E00E94B71D8DEB70
:100F500094E00E945F1D9093BC048093BB048DEBD2
:100F600094E00E94781D9093BA048093B9046AEAD1
:100F700090E080E00E9459026091BB0480E190E023
:100F80000E9459026091BC0481E190E00E945902E4
:100F90006091B90480E290E00E9459026091BA0425
:100FA00081E290E00E94590261E085E10E947F2B7E
:100FB00064EF71E080E090E00E946F2A60E085E1DC
:100FC0000E947F2B109230020895EF920F931F938F
:100FD0000E94C61964EF71E080E090E00E946F2AE1
:100FE000E12C04E610E020E030E048E552E063E068
:100FF00084E00E94881A04E610E020E030E04CED26
:1010000055E063E084E00E94881A04E610E020E0E6
:1010100030E048EE53E063E084E00E94881A64EF19
:1010200071E080E090E00E946F2A60E085E10E941C
:101030007F2B64EF71E080E090E00E946F2A61E016
:1010400085E10E947F2B64EF71E080E090E00E94D8
:101050006F2A60E085E10E947F2B81E08093FA0394
:101060001F910F91EF9008951F920F920FB60F925C
:1010700011242F933F934F935F936F937F938F939D
:101080009F93AF93BF93EF93FF9383E894E00E9405
:101090003F0281E080937D04FF91EF91BF91AF917A
:1010A0009F918F917F916F915F914F913F912F9180
:1010B0000F900FBE0F901F9018951F920F920FB6B2
:1010C0000F9211242F933F934F935F936F937F93CE
:1010D0008F939F93AF93BF93EF93FF9381E10E9410
:1010E000AD2B892B19F481E080938204FF91EF915D
:1010F000BF91AF919F918F917F916F915F914F9130
:101100003F912F910F900FBE0F901F9018951F9237
:101110000F920FB60F9211248F9381E08093790480
:101120008F910F900FBE0F901F901895EF92FF9226
:101130000F931F93CF93DF9300D000D0CDB7DEB7CE
:10114000F89410927A0010927B008FE380937E00D7
:1011500080917E00806C80937E0080917F00836010
:1011600080937F0080B7806880BFA89584B7877F11
:1011700084BF10926000789461E082E00E94432B6B
:1011800061E085E10E94432B61E086E10E94432BF0
:1011900061E084E00E94432B61E083E00E94432BE6
:1011A00061E085E00E94432B60E084E10E94432BD4
:1011B00062E081E10E94432B61E080E10E94432BC9
:1011C00061E089E00E94432B61E088E00E94432BAC
:1011D00060E085E10E947F2B61E082E00E947F2B2E
:1011E00062E070E080E090E00E946F2A61E080E1C0
:1011F0000E947F2B61E086E10E947F2B89ED94E0C5
:101200000E94A92640EA56E861E070E089ED94E08A
:101210000E94B32664EF71E080E090E00E946F2AA4
:101220000E94391A0E94391A1C821B8281E189832B
:1012300081E08A8383E08C83CE0101960E9430197D
:1012400082E00E94E6180E94471A68EE73E080E090
:1012500090E00E946F2A8DEB94E00E940A1D81119C
:1012600005C062E070E080E090E0F3CF8DEB94E0A9
:101270000E94D01C8823A9F060E085E10E947F2BAA
:1012800064EF71E080E090E00E946F2A61E085E108
:101290000E947F2B64EF71E080E090E00E946F2A53
:1012A000EBCF66E774E083E894E00E942D016DE5E2
:1012B00073E083E894E00E94290166E276E083E827
:1012C00094E00E94310160ED77E083E894E00E94B1
:1012D00025016CE271E083E894E00E94210162E361
:1012E00070E083E894E00E941D010E943D06F8949E
:1012F000DB9A809168008860809368008091730019
:10130000846080937300D99A809168008260809392
:10131000680080916C00886080936C00809165000B
:10132000877F809365001092A00084E08093A100E5
:101330001092A7001092A6001092A9001092A80087
:101340001092AB001092AA0081E080937200789412
:101350008DEB94E00E94911D8DEB94E00E94E91CBE
:101360008DEB94E00E94FE1C60910B0170910C01CA
:101370008DEB94E00E94F91C60910B0170910C01BF
:101380008DEB94E00E94051D90E080E00E946D02CC
:101390008A3A51F580E190E00E946D02082F81E1C8
:1013A00090E00E946D02182F1093BC040093BB04C0
:1013B00080E290E00E946D02F82E81E290E00E94AF
:1013C0006D02982F8F2D9093BA048093B904B801C1
:1013D0008DEB94E00E945A1D6091B9047091BA049B
:1013E0008DEB94E00E94731D8DEB94E00E94EF1C46
:1013F00060910B0170910C0188EE93E00E944430E3
:1014000046E08EE294E00E940F1642E050E06AE06F
:1014100070E08AE194E00E94381842E050E064E114
:1014200070E08CE094E00E94381844E050E06AE0FC
:1014300070E08EEF93E00E9438180E943E2A60937D
:101440007E0470937F04809380049093810483E8EA
:1014500094E00E943F020E943E2A60932B02709308
:101460002C0280932D0290932E02E12C04E610E0D2
:1014700020E030E048E552E063E084E00E94881A12
:1014800004E610E020E030E04CED55E063E084E05D
:101490000E94881A04E610E020E030E048EE53E0B5
:1014A00063E084E00E94881A1092A5001092A400C4
:1014B000109279040F900F900F900F90DF91CF91C1
:1014C0001F910F91FF90EF9008952F923F924F92AE
:1014D0005F926F927F928F929F92AF92BF92CF92C4
:1014E000DF92EF92FF920F931F93CF93DF93CDB7CD
:1014F000DEB763970FB6F894DEBF0FBECDBF0E9474
:101500003E2A4B015C0180917D04882351F01092AA
:101510007D0480927E0490927F04A0928004B09219
:10152000810480917904882369F01092790462E043
:1015300081E10E94432B8DEB94E00E94E41C81E04A
:101540008093770480918204882309F4FEC010926E
:10155000A5001092A4008DEB94E00E94E41C809200
:101560002B0290922C02A0922D02B0922E0280911A
:10157000FD0381111BC180912A0490912B0490934B
:101580002904809328048DEB94E00E94201D909301
:101590002B0480932A048DEB94E00E94341DB0E06C
:1015A000A0E0888B998BAA8BBB8B8DEB94E00E947B
:1015B000481D182F20912A0430912B042F3131051A
:1015C00008F0D0C18091FB039091FC0301969093A9
:1015D000FC038093FB0360910B0170910C0188EE7A
:1015E00093E00E94443088E7869FA001879F500DBA
:1015F00011248091FB039091FC034817590728F4AC
:1016000081E080937C0410920F0180917A04811113
:10161000B4C16EE274E0C9010E94441790932D0496
:1016200080932C046CE274E08AE194E00E946618D6
:101630006CE274E08CE094E00E946618BE01605F8A
:101640007F4F8EEF93E00E9466186AE08091FE0360
:101650009091FF030E9416186B017C0180917A041F
:1016600029E8C21623E1D206E104F1041CF4823019
:1016700009F07DC16AE080911A0490911B040E94D8
:10168000031890932D0480932C043CEDC31635E091
:10169000D306E104F1040CF07EC180912C049091FA
:1016A0002D04883E934008F076C1123008F473C1CF
:1016B00081E080932A0280912C0490912D04893836
:1016C000934130F088E893E190932D0480932C04AB
:1016D0001092820400912C0410912D040E9427196D
:1016E00080912A02882309F466C190917A0480913E
:1016F0002902911153C18E5F8093290280912902A2
:10170000843138F080912802109229028F5F8093F3
:10171000280280912802843010F0109228028091D3
:1017200028020E94E61880912A0281110CC0809143
:10173000B804882341F080910A0118160CF051C2B8
:10174000815080930A010E94471A80912B02909148
:101750002C02A0912D02B0912E02A5019401281B0C
:10176000390B4A0B5B0BDA01C90189389341A1059A
:10177000B105E0F080910F018823C1F00E94271984
:101780008AE0809324029FE0909325021092260223
:101790008093270284E292E00E9430190E94471A47
:1017A0006AE070E080E090E00E946F2A8091FD0383
:1017B000882321F080910F018111D0C360E085E181
:1017C0000E947F2B80917E0490917F04A0918004E1
:1017D000B0918104A5019401281B390B4A0B5B0BC6
:1017E000DA01C90189389341A105B10568F083B7D1
:1017F000817F846083BF8091FD03882329F010924C
:10180000FD038AE080930A0184E10E94AD2B892BBD
:1018100009F054C683E894E00E943F0261E070E062
:1018200080E090E00E946F2A80917704882309F479
:1018300060C08091FD0381115CC0109277048DEB34
:1018400094E00E94F41C8DEB94E00E94FE1C8091B9
:101850007A04813009F47FC608F468C6823009F43E
:1018600089C6809110012FEB44E064E0882349F0A1
:10187000809110012FEB48E068E0813011F040E1E9
:1018800060E18DEB94E00E948C1D90E080E00E946E
:101890006D028A3A51F580E190E00E946D02082FB6
:1018A00081E190E00E946D02182F1093BC04009318
:1018B000BB0480E290E00E946D02F82E81E290E08D
:1018C0000E946D02982F8F2D9093BA048093B904D3
:1018D000B8018DEB94E00E945A1D6091B90470919B
:1018E000BA048DEB94E00E94731D8DEB94E00E948E
:1018F000EF1C80917C04882309F4D3C610927C04E9
:1019000080910F01882309F404C761E082E00E94FE
:101910007F2B62E070E080E090E00E946F2A61E03F
:1019200080E10E947F2B61E086E10E947F2B62E0D4
:1019300081E10E94432B64EF71E080E090E00E941F
:101940006F2A0E94391A0E94391A8DEB94E00E9486
:101950000A1D81111EC662E070E080E090E00E94E6
:101960006F2AF3CF1092FC031092FB0334CE64E194
:1019700080910C0490910D0482CE30932D0420931D
:101980002C0488899989AA89BB8988359240A10548
:10199000B1050CF48ACE10922A028DCE90917A0471
:1019A000913011F48C5FA8CE90917A04923009F0B6
:1019B000A5CE8C5EA1CE80917604811135C0809138
:1019C0002C0490912D04813D37E0930770F06AE07C
:1019D00070E00E9444302AE0269FC001279F900DAE
:1019E000112490932D0480932C0480912C049091C9
:1019F0002D04893B4BE0940770F064E670E00E9490
:101A0000443024E6269FC001279F900D1124909317
:101A10002D0480932C0480912C0490912D040E941D
:101A20006019809178047DCEB80190E080E00E943A
:101A3000632E2BEF3AE74DE152E40E941A2F0E94E9
:101A4000342E6B017C012CE030E040E050E00E943D
:101A50006C3029013A01B90120917604213079F5E1
:101A600051E7451657E155066104710418F1C701A5
:101A7000B60128E730E040E050E00E946C30AAE078
:101A8000B0E00E94B330693223E27207810591050C
:101A900088F024E630E040E050E00E946C30A4E69C
:101AA000B0E00E94B330603137E2730781059105E1
:101AB00008F08DC6CB010E94601981E032CE809182
:101AC0007604823009F04BC041E4C41649E1D406E3
:101AD00041E0E406F104C8F1C701B60124E630E0B4
:101AE00040E050E00E946C30A4E6B0E00E94B330C9
:101AF0006B017C0151EEC51655EAD50651E0E506AD
:101B0000F10408F459C628EE33E040E050E00E94AA
:101B10006C30A8EEB3E00E94B3306B017C0180E42E
:101B2000C81682E4D8068FE0E806F10408F0FBCD81
:101B3000C701B60124E630E040E050E00E946C307E
:101B4000C9010E94601983E0ECCD90E1C91697E2CB
:101B5000D906E104F10408F02FC6C601ACCF80918C
:101B60007604833009F0DFCDC701B60128E730E005
:101B700040E050E00E946C300AE010E0C901B8017A
:101B80000E9458308983C201B8010E9458308A836C
:101B9000C201052C000CAA0BBB0BA3019201281B50
:101BA000390B4A0B5B0BCA01B9010E94632E20E07E
:101BB00030E040E451E40E941A2F0E942D2ECB0108
:101BC000B8010E945830282FCB01B8010E9458302C
:101BD0008B832C830E941519CE0101960E94301927
:101BE000A2CD80910D0190910E0120912C04309195
:101BF0002D042817390708F0A8C161E089E00E9488
:101C0000432B61E088E00E94432B80917B0481118B
:101C100069C024E630E040E050E060E070E0CB01D5
:101C20000E94F02BE0900D01F0900E0100910D014B
:101C300010910E010E94652E20E030E048EC52E445
:101C40000E94BB2D2DEC3CEC4CEC5DE30E944A2D38
:101C50002B013C01B70190E080E00E94632E6B01F4
:101C60007C0160912C0470912D0490E080E00E9432
:101C7000632E9B01AC01C701B6010E94492D6B0187
:101C80007C01B80190E080E00E94632E9B01AC01D2
:101C9000C701B6010E94BB2D9B01AC01C301B2017B
:101CA0000E94B62D87FF4FCD8091B804EE24E394B7
:101CB00003E010E020E030E048E552E0813009F038
:101CC00087C061E083E00E947F2BEE24E39403E071
:101CD00010E020E030E048E552E065E084E00E945A
:101CE000881A31CD80917B04813009F073C08091D6
:101CF000B8048130C9F561E083E00E947F2B6091D8
:101D00000D0170910E0100910D0110910E01809155
:101D10002C0490912D04681B790B90E080E00E94C8
:101D2000632E6B017C01B80190E080E00E94632E7D
:101D30009B01AC01C701B6010E94BB2D20E030E041
:101D40004AE755E40E941A2F20E030E048EC52E4C4
:101D50000E944A2D0E94342EEE24E3940FE010E0FE
:101D600020E030E0AB01B9CF60910D0170910E0120
:101D700000910D0110910E0180912C0490912D0481
:101D8000681B790B90E080E00E94632E6B017C0160
:101D9000B80190E080E00E94632E9B01AC01C70176
:101DA000B6010E94BB2D20E030E04AE755E40E94D6
:101DB0001A2F20E030E048EC52E40E944A2D0E94A5
:101DC000342EEE24E3940FE010E020E030E0AB018D
:101DD00063E084CF80917B04823009F0B4CC009121
:101DE0002C0410912D0420900D0130900E01809153
:101DF000200290912102A0912202B0912302A5011C
:101E00009401281B390B4A0B5B0BCA01B9010E94D4
:101E1000632E6B017C01B80190E080E00E94632E8C
:101E20002B013C01B10190E080E00E94632E9B01F8
:101E3000AC01C301B2010E94BB2D20E030E04AEFAB
:101E400053E40E941A2F20E030E04AEF53E40E944E
:101E50004A2D9B01AC01C701B6010E94152F87FDD9
:101E600072CC8092200290922102A0922202B09223
:101E700023028091B8048130C1F561E083E00E94C3
:101E80007F2B60910D0170910E0100910D01109159
:101E90000E0180912C0490912D04681B790B90E029
:101EA00080E00E94632E6B017C01B80190E080E02D
:101EB0000E94632E9B01AC01C701B6010E94BB2D9D
:101EC00020E030E04AE754E40E941A2F20E030E09E
:101ED0004AE754E40E944A2D0E94342EEE24E394F3
:101EE00006E910E020E030E03DCF60910D017091F7
:101EF0000E01E0900D01F0900E01601B710B90E05F
:101F000080E00E94632E2B013C01B70190E080E04D
:101F10000E94632E9B01AC01C301B2010E94BB2D44
:101F200020E030E04AE754E40E941A2F20E030E03D
:101F30004AE754E40E944A2D0E94342EEE24E39492
:101F400006E910E020E030E042CF60E084E00E944B
:101F50007F2B60E083E00E947F2BF5CB80913102E4
:101F6000882321F00E94E50710923102809130020F
:101F7000882321F00E9497071092300280912F024F
:101F8000882309F440C01092BC041092BB04109244
:101F9000BA041092B90460E085E10E947F2B60E0F2
:101FA00090E080E00E94590260E080E190E00E94B1
:101FB000590260E081E190E00E94590260E080E215
:101FC00090E00E94590260E081E290E00E94590294
:101FD00010922F0270E060E08DEB94E00E945A1D99
:101FE00070E060E08DEB94E00E94731D60E273E0AE
:101FF00080E090E00E946F2A61E085E10E947F2BE3
:1020000081E0809377048091FA03882309F442C029
:10201000E091F403F091F5038FE0DE011196019059
:102020000D928A95E1F70E9427198AE08093240295
:1020300080932502809326028093270267EC73E049
:10204000CE0101960E94B202882361F085E0809360
:1020500024028BE08093250282E080932602109276
:10206000270210C068EB73E0CE0101960E94B20215
:10207000882391F085E0809324029BE090932502D1
:102080008093270284E292E00E9430190E94471A4E
:102090001092FA0361E093CB69EA73E0CE010196F6
:1020A0000E94B202882341F085E0809324028BE0F5
:1020B0008093250281E0E4CF68EC72E0CE010196C6
:1020C0000E94B202882381F08CE0809324028BE08E
:1020D000809325028EE080932602809327028091D0
:1020E00078040E94E618CECF69EB72E0CE0101962B
:1020F0000E94B202882359F08CE0809324028BE086
:102100008093250283E1809326028EE0E6CF6AEA7F
:1021100072E0CE0101960E94B202882339F08CE071
:10212000809324028BE080932502EFCF61E373E07C
:10213000CE0101960E94B202882359F08DE080936F
:1021400024028BE08093250281E18093260282E1C4
:1021500097CF6FE473E0CE0101960E94B20288230C
:1021600059F08DE0809324028BE08093250281E07A
:102170008093260284E184CF62E273E0CE0101966F
:102180000E94B202882351F08DE0809324028BE0FC
:102190008093250281E1809326028CCF60E473E076
:1021A000CE0101960E94B202882341F08DE0809317
:1021B00024028BE08093250285E0EDCF6BE873E08D
:1021C000CE0101960E94B202882359F081E18093EA
:1021D00024028BE08093250281E08093260285E033
:1021E0004FCF6CE773E0CE0101960E94B2028823C4
:1021F00041F081E1809324028BE08093250282E00C
:10220000CACF6DE673E0CE0101960E94B202882328
:1022100059F081E1809324028BE08093250282E0D3
:102220008093260287E02CCF66EE72E0CE01019605
:102230000E94B202882351F08FE0809324028BE049
:10224000809325021092260281E11ACF65EF72E099
:10225000CE0101960E94B202882339F08FE080936C
:1022600024029BE090932502F8CE64E073E0CE0157
:1022700001960E94B202882341F08FE080932402ED
:102280008BE08093250280E186CF60E572E0CE018D
:1022900001960E94B202882341F08CE080932402D0
:1022A00088E0809325028AE0BBCF61E472E0CE0132
:1022B00001960E94B202882359F08CE08093240298
:1022C00088E0809325028AE08093260283E1D8CEBD
:1022D00062E372E0CE0101960E94B202882351F0BF
:1022E0008CE08093240298E0909325029AE09093EA
:1022F0002602C6CE6CE872E0CE0101960E94B202C0
:10230000882361F082E1809324028BE08093250290
:102310008AE08093260280917B04B2CE6EE672E062
:10232000CE0101960E94B202882309F47EC080E1AA
:10233000809324028BE08093250260910D017091BF
:102340000E0190E080E00E94632E2BEF3AE74DE112
:1023500052E40E941A2F0E94342E6B017C0180915E
:10236000760481111BC080910D0190910E0168EEE1
:1023700073E00E9444306093260280910D01909199
:102380000E0164E670E00E944430CB016AE070E028
:102390000E9444308093270283E0A3CE809176048C
:1023A000813031F180917604833011F1809176048F
:1023B000823009F067CEC701B60128EE33E040E075
:1023C00050E00E946C3020932602C701B60124E63B
:1023D00030E040E050E00E946C30CA01B9012AE0D0
:1023E00030E040E050E00E946C30609327024ACE1B
:1023F000C701B60120EE3EE240E050E00E946C30A2
:1024000020932602C701B60120EB34E040E050E003
:102410000E946C30CA01B9012AE030E040E050E08F
:102420000E946C3060932702B7CF66ED73E0CE0157
:1024300001960E94B202882321F085E08093240255
:1024400021CE67ED72E0CE0101960E94B202882390
:1024500011F08CE0F3CF6EE573E0CE0101960E949F
:10246000B202882311F08DE0E9CF63E173E0CE0181
:1024700001960E94B202882311F08FE0DFCF6AE953
:1024800073E0CE0101960E94B202882311F081E12F
:10249000D5CF6BE972E0CE0101960E94B20288238B
:1024A00011F082E1CBCF6DE772E0CE0101960E9480
:1024B000B202882309F4E6CD80E1C0CF80917E048A
:1024C00090917F04A0918004B0918104881A990AA8
:1024D000AA0ABB0A48E8841643E19406A104B104A1
:1024E00038F483E894E00E943F0283B7817F0FC0F5
:1024F0000E94AF1B8111F9CF80917B04823021F4BF
:102500008091B8048111F1CF83B7817F846083BF4C
:10251000F89483B7816083BF80E685BF80E485BF80
:102520007894889583B78E7F83BF7EC982E390E0DD
:1025300090930C0180930B0162E370E08DEB94E0CB
:102540000E94F91C60910B0170910C018DEB94E0DD
:102550000E94051D86C984E690E090930C0180934B
:102560000B0164E670E08DEB94E00E94F91C68ECCE
:1025700070E0ECCF88EC90E090930C0180930B011D
:1025800068EC70E08DEB94E00E94F91C68EE73E05B
:10259000DDCF8DEB94E00E94D01C8091B80488239D
:1025A000F9F0E12C04E610E020E030E048E552E0EC
:1025B00063E084E00E94881A04E610E020E030E046
:1025C0004CED55E063E084E00E94881A04E610E0D8
:1025D00020E030E048EE53E063E084E00E94881A97
:1025E0008DEB94E00E94911D8DEB94E00E94E91C1C
:1025F0008DEB94E00E94FE1C80917A04813009F4F6
:1026000076C008F467C0823009F47AC08091100166
:102610002FEB44E064E0882349F0809110012FEB18
:1026200048E068E0813011F040E160E18DEB94E03A
:102630000E948C1D90E080E00E946D028A3A51F564
:1026400080E190E00E946D02082F81E190E00E94FD
:102650006D02182F1093BC040093BB0480E290E03D
:102660000E946D02F82E81E290E00E946D02982F88
:102670008F2D9093BA048093B904B8018DEB94E048
:102680000E945A1D6091B9047091BA048DEB94E0D8
:102690000E94731D84E08093A1008DEB94E00E9462
:1026A000EF1C63960FB6F894DEBF0FBECDBFDF916F
:1026B000CF911F910F91FF90EF90DF90CF90BF903F
:1026C000AF909F908F907F906F905F904F903F90D2
:1026D0002F90089562E370E08DEB94E00E94F91C66
:1026E00062E370E08DEB94E00E94051D8FCF64E6FD
:1026F00070E08DEB94E00E94F91C68EC70E0F2CF82
:1027000064E670E08DEB94E00E94F91C68EE73E0E3
:10271000E9CF8DEB94E00E94F41C0E9427190E94DF
:10272000471A68EC70E080E090E00E946F2A809188
:10273000B804882359F0E12C0CE810E020E030E0E8
:1027400048EC50E063E084E00E94881A60E085E194
:102750000E947F2B88E08093A1001092FD0360E02F
:1027600080E10E947F2B62E070E080E090E00E94B8
:102770006F2A60E082E00E947F2B60E086E10E9489
:102780007F2B60E081E10E94432B109282048091B4
:102790007E0490917F04A0918004B09181048051C7
:1027A0009742A109B10980937E0490937F04A0937E
:1027B0008004B093810475CFC701B60150EAC516F5
:1027C00056E8D50651E0E506F10408F0B1C92AE063
:1027D00030E040E050E00E946C30C9010E94601976
:1027E00082E00C94910B2FEF3FEF4FEF5FEF69ED1D
:1027F00074E08DEB94E00E94731C20E041E050E017
:1028000064E170E083E894E00E94DD00E5EEF3E02F
:1028100082E291E091838083148213821282128675
:1028200011861086178216821582F08BE787F4874F
:10283000E38788E592E0928B818B87E592E0948B29
:10284000838BE6EDF3E08BE291E091838083148249
:1028500013821282148613861286118610861782BE
:1028600016821582E7ECF3E08DE291E0918380839C
:1028700014821382128214861386128611861086A1
:10288000178216821582E8EBF3E084E391E09183EE
:102890008083148213821282148613861286118614
:1028A0001086178216821582E9EAF3E087E391E049
:1028B0009183808314821382128214861386128677
:1028C00011861086178216821582EAE9F3E080E30A
:1028D00091E091838083148213821282148613867E
:1028E000128611861086178216821582EBE8F3E0B5
:1028F00083E391E091838083148213821282148691
:102900001386128611861086178216821582ECE7CE
:10291000F3E086E391E09183808314821382128234
:1029200014861386128611861086178216821582E7
:10293000EDE6F3E089E391E09183808314821382D2
:1029400012821486138612861186108617821682CA
:102950001582EEE5F3E08CE391E0918380831482AD
:1029600013821282148613861286118610861782AD
:1029700016821582EFE4F3E081E491E09183808395
:102980001482138212821486138612861186108690
:10299000178216821582E0E4F3E081E691E09183EC
:1029A0008083148213821282148613861286118603
:1029B0001086178216821582E1E3F3E08EE391E040
:1029C0009183808314821382128214861386128666
:1029D00011861086178216821582E2E2F3E080E407
:1029E00091E091838083148213821282148613866D
:1029F000128611861086178216821582E3E1F3E0B3
:102A000083E491E09183808314821382128214867E
:102A10001386128611861086178216821582E4E0CC
:102A2000F3E085E491E09183808314821382128223
:102A300014861386128611861086178216821582D6
:102A4000E5EFF2E088E491E09183808314821382C1
:102A500012821486138612861186108617821682B9
:102A60001582E6EEF2E08BE491E09183808314829C
:102A7000138212821486138612861186108617829C
:102A800016821582E7EDF2E08EE491E09183808377
:102A9000148213821282148613861286118610867F
:102AA000178216821582E8ECF2E080E591E09183CE
:102AB00080831482138212821486138612861186F2
:102AC0001086178216821582E9EBF2E083E591E029
:102AD0009183808314821382128214861386128655
:102AE00011861086178216821582EAEAF2E084E5E2
:102AF00091E091838083148213821282148613865C
:102B0000128611861086178216821582EBE9F2E092
:102B100086E591E091838083148213821282148669
:102B20001386128611861086178216821582ECE8AB
:102B3000F2E088E591E0918380831482138212820F
:102B400014861386128611861086178216821582C5
:102B5000EDE7F2E08BE591E09183808314821382AC
:102B600012821486138612861186108617821682A8
:102B70001582EEE6F2E08DE591E091838083148288
:102B8000138212821486138612861186108617828B
:102B900016821582EFE5F2E080E691E09183808372
:102BA000148213821282148613861286118610866E
:102BB000178216821582E0E5F2E083E691E09183C8
:102BC00080831482138212821486138612861186E1
:102BD0001086178216821582E1E4F2E086E691E023
:102BE0009183808314821382128214861386128644
:102BF00011861086178216821582E2E3F2E089E6DA
:102C000091E091838083148213821282148613864A
:102C100012861186108617821682158208952F92C9
:102C20003F924F925F926F927F928F929F92AF925C
:102C3000BF92CF92DF92EF92FF920F931F93CF93A9
:102C4000DF93CDB7DEB760970FB6F894DEBF0FBE47
:102C5000CDBF988B8F877E836D8382E090E0AF85B8
:102C6000B8898D939C93642F70E090E080E00E947F
:102C7000632EEF85F88966837783808791872BEDB4
:102C80003FE049E450E40E941A2F6B017C012D8142
:102C90003E81B90190E080E00E94632E9B01AC016F
:102CA000C701B6010E94BB2D0E948F2F4B015C0112
:102CB000AF85B8891A968D929D92AD92BC921D9760
:102CC000AC019B010E941A2F6B017C01EF85F889F2
:102CD000C686D786E08AF18AA5019401C501B401B0
:102CE0000E944A2D6F83788789879A87A70196016A
:102CF00060E070E080E89FE30E94492D9B01AC01F9
:102D00000E944A2D6B877C878D879E870F85188947
:102D10000A5E1F4F312C212CB101032C000C880BB3
:102D2000990B0E94652E9B01AC010E944A2D20E068
:102D300030E040E85FE30E944A2D2BED3FE049E49C
:102D400050E40E941A2F20E030E040E05EE30E9451
:102D50001A2F0E94872F69837A838B839C832F810C
:102D6000388549855A850E941A2F2B013C01AC01F8
:102D70009B01C701B6010E944A2D20E030E040E8E7
:102D80005FE30E944A2D4B015C01AC019B01C7012E
:102D9000B6010E94BB2DD8016D937D938D939D93B9
:102DA0008D01A50194016B857C858D859E850E9492
:102DB000BB2DF8016483758386839783A3019201F9
:102DC000C701B6010E94492D20E030E040E85FE3F2
:102DD0000E944A2D9058A50194010E94BB2DD80154
:102DE0001C966D937D938D939C931F97F801148A85
:102DF000158A168A178A5C961D921D921D921C9246
:102E00005F9714A215A216A217A2F1E02F163104A3
:102E100091F589819A81AB81BC81EF85F889828B9C
:102E2000938BA48BB58BDF0182829382A482B582BF
:102E3000AA5BBF4FBA83A983ED81FE813C97F8F46A
:102E40001D921C9260960FB6F894DEBF0FBECDBFE8
:102E5000DF91CF911F910F91FF90EF90DF90CF9076
:102E6000BF90AF909F908F907F906F905F904F90AA
:102E70003F902F90089522242394312C4DCFA98187
:102E8000BA812D923C92DECF2F923F924F925F9269
:102E90006F927F928F929F92AF92BF92CF92DF926A
:102EA000EF92FF920F931F93CF93DF93CDB7DEB7CF
:102EB00028970FB6F894DEBF0FBECDBF7A83698323
:102EC000BC0190E080E00E94632E6B017C01E981EF
:102ED000FA81EA5BFF4F80819181892B09F475C0EB
:102EE000A981BA812D903C9011975696B887AF83EF
:102EF00010E000E0021513050CF067C0EF81F885C3
:102F0000FE83ED8340A051A062A073A080A591A58F
:102F1000A2A5B3A589839A83AB83BC832085318521
:102F200042855385C301B2010E941A2F4B015C01F7
:102F3000EF81F885208931894289538969817A81B5
:102F40008B819C810E941A2F9B01AC01C501B401A9
:102F50000E944A2DA70196010E944A2D4B015C0157
:102F6000AF81B88558968D929D92AD92BC925B9739
:102F70001496B887AF83A3019201C301B2010E94E6
:102F80004A2DA50194010E944A2D29813A814B8145
:102F90005C810E944A2DED81FE8120813181428138
:102FA00053810E941A2F6B017C01AF81B8859496E2
:102FB0004D925D926D927C929797FD01848E958ED5
:102FC000A68EB78E0F5F1F4F95CFC701B6010E9427
:102FD000342ECB0128960FB6F894DEBF0FBECDBFBE
:102FE000DF91CF911F910F91FF90EF90DF90CF90E5
:102FF000BF90AF909F908F907F906F905F904F9019
:103000003F902F900895FC0190E030E020E096176B
:1030100031F041915191240F351F9F5FF8CF692FF7
:1030200070E0C9010E944430CB010895CF92DF9235
:10303000EF92FF92362FFC0120E060E070E0CB01C0
:10304000231751F0C190D190E190F1906C0D7D1D4E
:103050008E1D9F1D2F5FF4CF30E050E040E00E94B6
:103060008E30CA01B901FF90EF90DF90CF900895A4
:10307000CF92DF92EF92FF920F931F93CF93DF9344
:10308000EC016B017A01649F8001659F100D749FB4
:10309000100D1124C8010E94CD3099838883080F38
:1030A000191F1B830A83DD82CC821F821E82F98650
:1030B000E8869B878A879D878C87DF91CF911F91B8
:1030C0000F91FF90EF90DF90CF900895CF93DF9313
:1030D000EC018E819F81488559852C813D81821725
:1030E000930791F42C853D85240F351F3D872C8750
:1030F000EA81FB812E173F0721F4288139813D8722
:103100002C8701979F838E838A859B850E946333DA
:103110008A859B8528853985820F931F9B878A879F
:103120002A813B818217930721F4888199819B87AB
:103130008A878E819F8101969F838E83DF91CF91B5
:103140000895CF92DF92EF92FF92CF93DF93663193
:10315000C8F5E62FF0E0E459FE4FE081F0E098E09A
:10316000899FE001112430E020E060E070E0CB01B5
:10317000AF01022E02C0559547950A94E2F74170BF
:1031800055276A01550FEE08FF08DE01A20FB31F95
:10319000AF57BE4FAC9104C0CC0CDD1CEE1CFF1C25
:1031A000AA95D2F76C297D298E299F292F5F3F4F41
:1031B00027303105E9F6DF91CF91FF90EF90DF9056
:1031C000CF90089560E070E0CB01F5CFE82F8FEF4E
:1031D0008E0F833048F5E150FF0B83E0EE0FFF1FA9
:1031E0008A95E1F7EF57FE4F278181E090E0A0E05C
:1031F000B0E004C0880F991FAA1FBB1F2A95D2F701
:103200004091C7045091C8046091C9047091CA04E8
:10321000842B952BA62BB72B8093C7049093C804BF
:10322000A093C904B093CA0408958091C7049091F3
:10323000C804A091C904B091CA0490688093C704DF
:103240009093C804A093C904B093CA04089510923F
:10325000C7041092C8041092C9041092CA040895B9
:10326000CF92DF92EF92FF920F931F93CF938C0137
:10327000C0E0F80161918F018C2F0E94A118C090CD
:10328000C704D090C804E090C904F090CA04DC01DF
:10329000CB018C299D29AE29BF298093C704909327
:1032A000C804A093C904B093CA04CF5FC43009F71F
:1032B000CF911F910F91FF90EF90DF90CF900895E5
:1032C0000F931F93CF93DF9300D000D000D0CDB7E2
:1032D000DEB78E010F5F1F4F26E0F80111922A958D
:1032E000E9F78031F7E29F07F8F49C01EAE0F0E0AB
:1032F000BF010E9444308C83CB01BF010E94443047
:103300008B83C90164E670E00E944430CB01BF01A9
:103310000E9444308A83C90168EE73E00E94443001
:103320006983C8010E94301926960FB6F894DEBF53
:103330000FBECDBFDF91CF911F910F9108950F93D5
:103340001F93CF93DF93162FEA01022F682F89ED89
:1033500094E00E94C626612F89ED94E00E944D26DC
:103360000C0F1D2F111DC017D10731F0699189ED88
:1033700094E00E944D26F7CF89ED94E00E94492702
:1033800081E0DF91CF911F910F9108958F929F92CD
:10339000AF92BF92FF920F931F93CF93DF9300D012
:1033A00000D0CDB7DEB701E811E088E0F82E812C1F
:1033B000912C54018394F80120E080E090E0DC013E
:1033C0003081B501A40104C0440F551F661F771F4B
:1033D0003A95D2F7842B952BA62BB72B2F5F3896D7
:1033E000243071F789839A83AB83BC8324E0AE01D8
:1033F0004F5F5F4F60E088E30E949F196CE271E0CD
:1034000080E090E00E946F2AFA940F5F1F4FF11046
:10341000D2CF0F900F900F900F90DF91CF911F910F
:103420000F91FF90BF90AF909F908F900895CF9392
:10343000DF9300D01F92CDB7DEB780911F0190912E
:103440002001A091210189839A83AB8323E0AE01FF
:103450004F5F5F4F6DEC88E30E949F1991E08111EF
:1034600001C090E0892F0F900F900F90DF91CF91C6
:1034700008950C94171A242F6F73AC0188E30E94EF
:103480009F1991E0811101C090E0892F0895CF9399
:10349000DF9300D000D0CDB7DEB73091C7042091C4
:1034A000C8049091C9048091CA0439832A839B83FC
:1034B0008C8344E060E0CE0101960E943B1A0F909D
:1034C0000F900F900F90DF91CF910895E0E7F0E01B
:1034D00080818D7F808384E08093B10081E0809340
:1034E000B000E091D304F091D40490818091D00495
:1034F000809589238083E091D104F091D20490815A
:103500008091CF048095892380831092D004089500
:103510002F923F924F925F926F927F928F929F92E3
:10352000AF92BF92CF92DF92EF92FF920F931F93D1
:10353000CF93DF93D82FC62F280139010E2D9A0182
:1035400050E040E060E072E18AE790E00E948E3057
:1035500049015A0171E1272E71E0372E11E0F10186
:10356000219131911F01032E000C440B550BC50115
:10357000B4010E948E3069017A01F1E0CF1AD108BE
:10358000E108F1082FEFC216D104E104F104D9F0EB
:10359000D4F01F5F183019F7DF91CF911F910F9171
:1035A000FF90EF90DF90CF90BF90AF909F908F9063
:1035B0007F906F905F904F903F902F900C94661A81
:1035C0009081892BA7C08FEF9FEFDC01411451043C
:1035D0006104710479F00E943E2A53014201E1E046
:1035E0008E1A9108A108B108DC01CB01880D991D44
:1035F000AA1DBB1D8093D5049093D604A093D70435
:10360000B093D8048091D004811157C08D2F90E0E1
:10361000FC01E25FFE4F44914093D004D0E0FE01F4
:10362000E25FFE4FE491E093CF048A5D9E4FFC0180
:103630002491E22FF0E0EE0FFF1FE65BFE4F259195
:1036400034913093CE042093CD04CA5DDE4FFE0149
:103650002491E22FF0E0EE0FFF1FE65BFE4F259175
:1036600034913093CC042093CB04FC018491E82F57
:10367000F0E0EE0FFF1FEA5AFE4FA591B491B09310
:10368000D404A093D304FE01C491EC2FF0E0EE0F1C
:10369000FF1FEA5AFE4F859194919093D204809334
:1036A000D104EC914E2B4C93E091D104F091D204D3
:1036B00080819091CF04892B8083C092B300809148
:1036C000B20090E0B0E0A0E0C816D906EA06FB061A
:1036D00014F4C092B20018601093B10083E080939C
:1036E000B000809170008D7F80937000E091CD04D8
:1036F000F091CE0490818091D00498238091CF04E2
:10370000E091CB04F091CC04992309F459CF908136
:1037100080958923808380917000826080937000FF
:10372000411451046104710439F0011105C0C30151
:10373000B2010E946F2A30CFDF91CF911F910F917C
:10374000FF90EF90DF90CF90BF90AF909F908F90C1
:103750007F906F905F904F903F902F900895CF9201
:10376000DF92EF92FF920E943E2A21E0C090D504A2
:10377000D090D604E090D704F090D804C616D706AF
:10378000E806F90608F420E0822FFF90EF90DF9022
:10379000CF9008951F920F920FB60F9211240F939E
:1037A0001F932F933F934F935F936F937F938F93C9
:1037B0009F93AF93BF93EF93FF930E943E2A009194
:1037C000D5041091D6042091D7043091D80406175F
:1037D00017072807390710F40E94661AE091CD04F4
:1037E000F091CE0480819091D00489278083E0916C
:1037F000CB04F091CC0480819091CF048927808301
:10380000FF91EF91BF91AF919F918F917F916F91B8
:103810005F914F913F912F911F910F910F900FBE8C
:103820000F901F9018950895FC018481958197FD54
:1038300003C060E00E947F2B6AE070E080E090E0CF
:103840000C946F2AFC018481958197FD03C061E08F
:103850000E947F2B6AE070E080E090E00C946F2A79
:103860000C94462D0F931F93CF93DF9300D0CDB7C9
:10387000DEB78B01BE016F5F7F4F0E94012449813B
:103880005A8170E060E0F801408351836283738362
:10389000082E000C990B0F900F90DF91CF911F9184
:1038A0000F910895CF93DF9300D0CDB7DEB7BE015F
:1038B0006F5F7F4F0E94E12381E090E029813A8190
:1038C0002C3A3E4E11F490E080E09195819591095B
:1038D0000F900F90DF91CF9108950E940920082E3C
:1038E000000C990B0895AF92BF92CF92DF92EF92A6
:1038F000FF920F931F93CF93DF938C016B017A019B
:10390000590182E590E0F801978386837183608393
:1039100053834283358324838DE090E00E94442DBD
:10392000EC0185EA91E099838883DB82CA82FD827B
:10393000EC82BF82AE8282E58887DA86C986CE01B4
:1039400008969C878B87F7FC04C061E08E2D0E944F
:10395000432BF801D187C087DF91CF911F910F9141
:10396000FF90EF90DF90CF90BF90AF900895CF93EE
:10397000DF9300D0CDB7DEB7BE016F5F7F4FFC0194
:10398000808591850E94E12381E029813A812C3C48
:103990003A4E09F080E00F900F90DF91CF9108959B
:1039A000CF93DF93EC010E94B71C91E0882341F094
:1039B000888599850E94092091E0811101C090E0DD
:1039C000892FDF91CF910895FC01808591850C941A
:1039D0003D1E60E0FC01808591850C94891FFC01EF
:1039E000808591850C94451EFC01808591850C9401
:1039F0004D1EFC01808591850C94DB2062E070E017
:103A0000FC01808591850C940923FC0180859185BA
:103A10000C949D23CF93DF931F92CDB7DEB7BE01E9
:103A20006F5F7F4FFC01808591850E94052281E0B8
:103A30009981911101C080E00F90DF91CF9108959D
:103A4000CF93DF9300D0CDB7DEB7BE016F5F7F4F5E
:103A5000FC01808591850E94012489819A810F90C3
:103A60000F90DF91CF910895CF93DF9300D0CDB722
:103A7000DEB7BE016F5F7F4FFC01808591850E949C
:103A8000992489819A810F900F90DF91CF910895A9
:103A9000CF93DF931F92CDB7DEB7BE016F5F7F4F2D
:103AA000FC01808591850E94212289810F90DF9100
:103AB000CF910895FC01808591850C94A01ECF9331
:103AC000DF9300D0CDB7DEB7BE016F5F7F4FFC0143
:103AD000808591850E94CF2589819A810F900F90D2
:103AE000DF91CF910895FC01808591850C94C51ECE
:103AF000CF93DF9300D0CDB7DEB7BE016F5F7F4FAE
:103B0000FC01808591850E94F72589819A810F901B
:103B10000F90DF91CF910895FC01808591850C94E1
:103B2000551EFC01808591850C947120EF92FF92C7
:103B30000F931F93CF93DF9300D0CDB7DEB78C01E7
:103B40007B010E945F1D9A838983AE014F5F5F4FA7
:103B5000B701F801808591850E941F240F900F9076
:103B6000DF91CF911F910F91FF90EF900895EF9209
:103B7000FF920F931F93CF93DF9300D0CDB7DEB7A3
:103B80008C017B010E94781D9A838983AE014F5F6F
:103B90005F4FB701F801808591850E94D9240F906D
:103BA0000F90DF91CF911F910F91FF90EF900895AB
:103BB000AF92BF92CF92DF92EF92FF920F931F933B
:103BC000CF93DF9300D0CDB7DEB76C01F42EE52E96
:103BD00059016695DC0112968D919C910E94C62632
:103BE000E982FA82F60182819381DC01ED91FC91F8
:103BF0000280F381E02D42E050E0BE016F5F7F4F15
:103C0000099575010A0D1B1DF60182819381E0164D
:103C1000F10659F0D7016D917D01DC01ED91FC9128
:103C20000190F081E02D0995EFCF61E00E94D02650
:103C300080E00F900F90DF91CF911F910F91FF9037
:103C4000EF90DF90CF90BF90AF9008950F931F93A8
:103C5000CF93DF931F92CDB7DEB7298301E010E049
:103C60009E012F5F3F4FFB0160810E94D81D0F9086
:103C7000DF91CF911F910F910895FC0163857485A9
:103C800021E046E850E00C94261EFC016385748513
:103C900020E447E850E00C94261EFC0163857485FF
:103CA00020E047E850E00C94261E0F931F93CF931B
:103CB000DF938C01C42FD62F613108F0D0E1C131E0
:103CC00020F56B3010F4CB3008F027ECF801638559
:103CD00074854FE750E0C8010E94261E8C2F81504A
:103CE000990B9C0184E0220F331F8A95E1F7D15094
:103CF0002D2BF8016385748540E850E0C801DF9101
:103D0000CF911F910F910C94261EC0E1DECF0F932F
:103D10001F93CF93DF9300D0CDB7DEB739832A83CB
:103D200002E010E09E012F5F3F4FFB0160810E9487
:103D3000D81D0F900F90DF91CF911F910F91089593
:103D4000CF93DF93EC019B01220F331F220F331F10
:103D50006B857C854EE150E0CE010E94871E6B850D
:103D60007C8530E020E040E250E0CE010E94871EDA
:103D70006B857C8530E020E042E250E0CE010E947D
:103D8000871E80E0DF91CF9108951F93CF93DF933B
:103D9000EC01162F6B857C8530E020E048E150E097
:103DA0000E94871E6B857C8530E020E04AE150E070
:103DB000CE010E94871E80E0912F990F68EE73E07C
:103DC0000E9444309B016B857C8546E150E0CE012A
:103DD000DF91CF911F910C94871E0F931F93CF9368
:103DE000DF9300D000D0CDB7DEB739832A831B83A1
:103DF0000C8304E010E09E012F5F3F4FFB016081C8
:103E00000E94D81D0F900F900F900F90DF91CF91CF
:103E10001F910F9108959F92AF92BF92CF92DF9220
:103E2000EF92FF920F931F93CF93DF9300D0CDB704
:103E3000DEB77C01A42E952EB22EC32E162F16951A
:103E400085E0D82E612FD70112968D919C910E940A
:103E5000C6269982AA82F70182819381DC01ED91C5
:103E6000FC910280F381E02D42E050E0BE016F5FE3
:103E70007F4F099560E0F701828193810E94D026EF
:103E8000882319F0DA94D110DDCF402F612FD701AC
:103E900012968D919C910E9446270B2D1C2DF701A7
:103EA00082819381DC01ED91FC910084F185E02D0C
:103EB0000995892B71F0F70182819381DC01ED91E5
:103EC000FC910284F385E02D0995F80181938F011F
:103ED000E6CF80E00F900F90DF91CF911F910F916F
:103EE000FF90EF90DF90CF90BF90AF909F9008959C
:103EF0000F931F9301E010E0FB0160810E940B1FF4
:103F000091E0811101C090E0892F81951F910F915F
:103F10000895FF920F931F93CF93DF931F92CDB716
:103F2000DEB78C01F62EFC01638574859E012F5F40
:103F30003F4F40E350E00E94781F29812F7E298364
:103F400080E0F0FE80E1282BF8016385748540E372
:103F500050E0C8010E94261E0F90DF91CF911F9163
:103F60000F91FF900895EF92FF920F931F93CF93BD
:103F7000DF931F92CDB7DEB77B01FC0163857485AB
:103F80009E012F5F3F4F40E350E00E94781F9981D0
:103F900094FB002700F910E0F1E00F27F701008300
:103FA0000F90DF91CF911F910F91FF90EF900895A7
:103FB000EF92FF920F931F93CF93DF9300D0CDB773
:103FC000DEB78C017B01BE016F5F7F4F0E94B31F84
:103FD000F801638574859E012E5F3F4F41E350E0F9
:103FE000C8010E94781F811108C09A8191702981AF
:103FF00029130CC091E0F70190830F900F90DF918F
:10400000CF911F910F91FF90EF900895F7011082CB
:10401000F4CFCF92DF92EF92FF920F931F93CF9343
:10402000DF931F92CDB7DEB78C01198293EBC92EB7
:1040300091E0D92E2DE2E22EF12CF60121916F01B3
:10404000F80163857485A701C8010E94261EFFEF51
:10405000EF1AFF0A88E8E816F10479F7C8010E9410
:10406000451E67E670E080E090E00E946F2A83E3DF
:10407000F82E8981811110C0BE016F5F7F4FC8018A
:104080000E94D81FFA94FF2051F161E070E080E0B7
:1040900090E00E946F2AEDCF1982C8010E943D1E58
:1040A000C8010E944D1EF8016385748529E048E02F
:1040B00050E0C8010E94261EF8016385748520E047
:1040C0004BE050E0C8010E94261E0F90DF91CF9177
:1040D0001F910F91FF90EF90DF90CF90089589EF9F
:1040E000F4CF0F931F93CF93DF931F92CDB7DEB71B
:1040F0008C011982FC016385748521E848E050E059
:104100000E94261EF8016385748522E94BE050E089
:10411000C8010E94261EC8010E94451E8981811186
:1041200007C0BE016F5F7F4FC8010E94D81FF6CF46
:104130001982C8010E943D1EC8010E944D1EF8014F
:104140006385748529E048E050E0C8010E94261E7E
:10415000F8016385748520E04BE050E0C8010E94BF
:10416000261E0F90DF91CF911F910F9108950F930D
:104170001F93CF93DF931F92CDB7DEB78B01FC0166
:10418000638574859E012F5F3F4F4BE450E00E9492
:10419000781F998121E030E0943121F09A3029F4A0
:1041A00022E030E0F801318320830F90DF91CF913E
:1041B0001F910F910895DF92EF92FF920F931F933B
:1041C000CF93DF9300D0CDB7DEB78C017B01BE016A
:1041D0006F5F7F4F0E94B720D82E89819A81009708
:1041E00009F4ABC0019709F09AC082E3E816F10424
:1041F00009F465C070F5F4E1EF16F10409F449C063
:1042000081E2E816F10409F454C0EFE0EE16F1047F
:1042100009F093C0F801638574852DE130E04EE527
:1042200050E0C8010E94871EF8016385748527E26B
:1042300030E041E650E0C8010E94871E8D2D0F90AE
:104240000F90DF91CF911F910F91FF90EF90DF9032
:104250000895F8ECEF16F10409F441C084EFE81674
:1042600081E0F80609F44BC0E4E6EE16F10409F02B
:1042700064C0F8016385748521EE32E04EE550E0BC
:10428000C8010E94871EF8016385748528E833E021
:10429000D0CFF8016385748521E530E04EE550E02C
:1042A000C8010E94871EF801638574852EE630E000
:1042B000C0CFF8016385748526ED30E0EFCFF801BB
:1042C000638574852EEA31E04EE550E0C8010E9416
:1042D000871EF8016385748528EE31E0AACFF801C6
:1042E0006385748521EE33E04EE550E0C8010E94FD
:1042F000871EF8016385748526E934E09ACFF801BA
:104300006385748521E935E04EE550E0C8010E94DF
:10431000871EF8016385748521EC35E08ACFF2E3CE
:10432000EF16F10409F441C058F4E4E1EE16F1048B
:1043300031F1F1E2EF16F10491F1DD24D3947ECF57
:1043400088ECE816F10409F440C0E4EFEE16E1E071
:10435000FE0609F44AC0F4E6EF16F10471F7F8011D
:10436000638574852CEC31E04EE550E0C8010E9475
:10437000871EF801638574852AEE31E05ACFF80173
:10438000638574852EE130E04EE550E0C8010E945F
:10439000871EF8016385748522E230E04ACFF80178
:1043A0006385748520E630E079CFF80163857485F4
:1043B0002DEA30E04EE550E0C8010E94871EF8016A
:1043C0006385748526EC30E034CFF801638574850D
:1043D00029ED32E04EE550E0C8010E94871EF80149
:1043E0006385748528EF32E024CFF80163857485F6
:1043F0002FE834E04EE550E0C8010E94871EF80126
:104400006385748524EA34E014CF0F931F93CF9310
:10441000DF931F92CDB7DEB78B011982FC01638554
:1044200074859E012F5F3F4F45EE50E00E94781F3C
:104430009981F80190830F90DF91CF911F910F9197
:1044400008950F931F93CF93DF931F92CDB7DEB7DD
:104450008B01FC01638574859E012F5F3F4F49E806
:1044600050E00E94781FE981EF71E350E53108F0D8
:104470003DC0F0E0E25CFD4D0C94AD306622602260
:1044800064225D226A2262225322762276226C22E4
:10449000742276227622762276226E226822762274
:1044A00076227022722219829981F80190830F90EE
:1044B000DF91CF911F910F91089591E09983F4CFEF
:1044C00092E0FCCF93E0FACF94E0F8CF95E0F6CFFE
:1044D00096E0F4CF97E0F2CF99E0F0CF9AE0EECFFC
:1044E0009BE0ECCF9CE0EACF9DE0E8CF9FEFE6CFEA
:1044F000EF92FF920F931F93CF93DF9300D0CDB72E
:10450000DEB7790119821A8202E010E09E012F5F66
:104510003F4FFB0160810E940B1F81110AC029815E
:1045200030E0322F22279A81290F311DF701318384
:1045300020830F900F90DF91CF911F910F91FF90EB
:10454000EF9008950F931F93CF93DF9300D0CDB7D3
:10455000DEB78B01FC01638574859E012F5F3F4FA1
:104560004EE550E00E94782229813A812E3AF1E00E
:104570003F0709F445C0D0F421353105F1F150F47D
:104580002D31310571F12E313105B9F1F80111826A
:1045900010822CC02D3A310599F1263D310519F0D4
:1045A0002036310599F721E230E01DC0213EE2E0DE
:1045B0003E0749F150F42C3C91E0390721F1293DA7
:1045C000324021F728EC30E00EC02F38F4E03F07EE
:1045D000E9F0213995E03907C9F0213E3340B1F6C1
:1045E000F1CF2FE030E0F801318320830F900F905E
:1045F000DF91CF911F910F91089524E130E0F3CF27
:1046000022E330E0F0CF24E630E0EDCF24EF31E0DC
:10461000EACFEF92FF920F931F93CF93DF9300D0D7
:10462000CDB7DEB78C017B01BE016F5F7F4F0E946B
:10463000A22281E0E816F10499F0E2E0EE16F1041E
:1046400009F447C069817A81C8010E94DB200F907C
:104650000F90DF91CF911F910F91FF90EF900895F0
:10466000F8016385748524E14BE450E0C8010E94A1
:10467000261EF8016385748527E040E650E0C801F6
:104680000E94261EF8016385748525E043E650E00C
:10469000C8010E94261EF8016385748528E349E657
:1046A00050E0C8010E94261EF8016385748525E04C
:1046B00037E048E750E0C8010E94871EF801638593
:1046C000748526E036E04AE750E0C8010E94871E64
:1046D000B9CFF801638574852AE04BE450E0C80146
:1046E0000E94261EF801638574852FE040E650E0A5
:1046F000C8010E94261EF801638574852DE043E6FB
:1047000050E0C8010E94261EF8016385748528EBDD
:1047100049E650E0C8010E94261EF80163857485B1
:104720002DE03FE048E750E0C8010E94871EF801F5
:10473000638574852EE03EE0C6CFDF92EF92FF9254
:104740000F931F93CF93DF9300D0CDB7DEB77C01DB
:104750008B01FC01638574859E012F5F3F4F4EEDF9
:1047600050E00E947822D82E89819A8193709A8392
:104770008983809FB001819F700D909F700D1124DF
:1047800090E080E00E94632E2AE939E949E85FE37E
:104790000E941A2F0E94342E8B019C01F701638521
:1047A00074854CE650E0C7010E94ED1E8D2D0F90E0
:1047B0000F90DF91CF911F910F91FF90EF90DF90BD
:1047C00008950F931F93CF93DF9300D0CDB7DEB73B
:1047D0008B011A821982FC01638574859E012F5F0B
:1047E0003F4F4FE051E00E94782229813A81F80141
:1047F000318320830F900F90DF91CF911F910F9104
:1048000008950F931F93CF93DF9300D0CDB7DEB7FA
:104810008B01FC01638574859E012F5F3F4F46E944
:1048200050E00E94782229813A81F8013183208367
:104830000F900F90DF91CF911F910F9108958F925C
:104840009F92BF92CF92DF92EF92FF920F931F93AE
:10485000CF93DF9300D01F92CDB7DEB78C017B01E1
:104860004A01FC016385748530E020E04EE150E0B0
:104870000E94871EF8016385748530E020E040E2E5
:1048800050E0C8010E94871EF8016385748530E0FE
:1048900020E042E250E0C8010E94871EC8010E9449
:1048A000451E92E3B92ED12CC12C8B81811107C0FA
:1048B000BE016D5F7F4FC8010E94D81FF6CF1B82DB
:1048C000BE016F5F7F4FC8010E940124C8010E9492
:1048D0003D1E89819A81C80ED91EBA94B110E5CFC8
:1048E000C8010E944D1EC60162E370E00E9458306C
:1048F0009701261B370BF40131832083220F331FCE
:10490000220F331FF801638574854EE150E0C80122
:104910000E94871E0F900F900F90DF91CF911F91F3
:104920000F91FF90EF90DF90CF90BF909F908F906E
:1049300008950F931F93CF93DF9300D0CDB7DEB7C9
:104940008B01FC01638574859E012F5F3F4F48E911
:1049500050E00E94782229813A8193E0220F331F90
:104960009A95E1F7F801318320830F900F90DF9142
:10497000CF911F910F9108950F931F93CF93DF93C2
:1049800000D0CDB7DEB78B01FC01638574859E0135
:104990002F5F3F4F4CE850E00E9478229A81F80147
:1049A000908311820F900F90DF91CF911F910F9103
:1049B00008952F923F924F925F926F927F928F92C3
:1049C0009F92AF92BF92CF92DF92EF92FF920F939E
:1049D0001F93CF93DF93CDB7DEB72A970FB6F89426
:1049E000DEBF0FBECDBF8C011B015A8749871F82D6
:1049F0001E821D82DC011B966D917C9130E020E0CF
:104A000046E150E00E94871EC8010E94451EB2E3A5
:104A1000B887C12CD12C76012601370157014601F8
:104A20008F81811107C0BE01695F7F4FC8010E945D
:104A3000D81FF6CF1F82BE016F5F7F4FC8010E9453
:104A40009924BE016B5F7F4FC8010E940124C801F9
:104A50000E943D1E6D817E8190E080E00E94632E69
:104A60009B01AC01C301B2010E944A2D2B013C0104
:104A7000BE016D5F7F4FC8010E94BC246B817C81A9
:104A800090E080E00E94632E9B01AC01C701B6015B
:104A90000E944A2D6B017C0169817A8190E080E05F
:104AA0000E94632E9B01AC01C501B4010E944A2DF6
:104AB0004B015C01E885E150E887E111B1CFC80105
:104AC0000E944D1E20E030E048E452E4C301B201F0
:104AD0000E94BB2D2B013C01B10190E080E00E94BF
:104AE000632E9B01AC01C301B2010E94BB2D9B014F
:104AF000AC0160E070E080E89FE30E94492D2B014B
:104B00003C0120E030E048E452E4C501B4010E94D9
:104B1000BB2D9B01AC01C301B2010E941A2F20E002
:104B200030E040E054E40E941A2F4B015C0120E089
:104B300030E048E452E4C701B6010E94BB2D9B015E
:104B4000AC01C501B4010E94BB2D0E94342EA98581
:104B5000BA856D937C93D8011B96ED91FC919B01D6
:104B600046E150E0BF01C8010E94871E2A960FB699
:104B7000F894DEBF0FBECDBFDF91CF911F910F9193
:104B8000FF90EF90DF90CF90BF90AF909F908F906D
:104B90007F906F905F904F903F902F9008950F936C
:104BA0001F93CF93DF9300D0CDB7DEB78B01FC010D
:104BB000638574859E012F5F3F4F4EE150E00E9458
:104BC000782229813A8193E0220F331F9A95E1F7E9
:104BD00045E0369527954A95E1F7F8013183208322
:104BE0000F900F90DF91CF911F910F9108950F9328
:104BF0001F93CF93DF9300D0CDB7DEB78B01FC01BD
:104C0000638574859E012F5F3F4F46E150E00E940F
:104C1000782269817A8148EE53E0649F9001659F14
:104C2000300D749F300D1124932F9695F8019083C9
:104C300011820F900F90DF91CF911F910F910895E6
:104C400090E080E008958091090590910A05891B04
:104C5000990B089590910A05809109052FEF3FEF78
:104C6000981748F4E92FF0E0E55FFA4F208130E033
:104C70009F5F90930A05C9010895E0910A0580910C
:104C80000905E81730F4F0E0E55FFA4F808190E025
:104C900008958FEF9FEF08950895CF93DF931F92AC
:104CA000CDB7DEB769832091E5042223F9F0209186
:104CB000E604203258F021E030E0FC013383228307
:104CC00090E080E00F90DF91CF9108958091E7040C
:104CD000E82FF0E0E851FB4F998190838F5F80933C
:104CE000E7048093E60481E090E0ECCF61E0CE0140
:104CF00001960E94A328F7CFCF92DF92EF92FF9206
:104D00000F931F93CF93DF937C01CB018A012091F6
:104D1000E504222389F0EB016B01C40ED51ECC15EE
:104D2000DD0569F06991D701ED91FC910190F08169
:104D3000E02DC7010995F3CF642F0E94A328C80175
:104D4000DF91CF911F910F91FF90EF90DF90CF9067
:104D5000089510920A05109209051092E704109226
:104D6000E6040C945D279A01AB0160E072E18AE7EA
:104D700090E00E946C30205131094109510956954B
:104D80004795379527952093B800089581E0809343
:104D9000E504609308051092E7041092E604089574
:104DA0000F93062F21E04091E60468EE74E08091B5
:104DB00008050E9425281092E7041092E60410923C
:104DC000E5040F9108954F925F926F927F92AF9298
:104DD000BF92CF92EF92FF920F931F93CF93DF93E7
:104DE0005C01F62ED42F28013901EE2019F10E9422
:104DF000C626CE2DC43008F0C3E0C150B8F028E07C
:104E0000C29FC0011124A301920104C05695479589
:104E1000379527958A95D2F7B901D501ED91FC9187
:104E20000190F081E02DC5010995E7CF60E0C50153
:104E30000E94D0264D2FD13208F040E22C2D6BE09D
:104E400075E08F2D0E94B42710920A058093090502
:104E5000DF91CF911F910F91FF90EF90CF90BF9076
:104E6000AF907F906F905F904F900895CF92EF92A8
:104E70000F931F93C22EE12C00E010E098010E94D6
:104E8000E3261F910F91EF90CF90089521E00C94AD
:104E9000362761E00C94D026E9EDF4E0138212820B
:104EA00088EE93E0A0E0B0E084839583A683B78387
:104EB00082E192E091838083089510929C0581E0C5
:104EC00080939A051092990561E082E10E947F2B00
:104ED00061E083E10E947F2BE9EBF0E080818E7F2F
:104EE000808380818D7F808380E28093B80085E419
:104EF0008093BC000895882309F110922B0510922D
:104F00002C0510922D0510922E0580912B05909165
:104F10002C05A0912D05B0912E05803A9648A14010
:104F2000B10500F110922B0510922C0510922D0561
:104F300010922E050E945D2781E0089580912B0537
:104F400090912C05A0912D05B0912E050196A11DE3
:104F5000B11D80932B0590932C05A0932D05B09344
:104F60002E05D3CF80E00895FF920F931F93CF9328
:104F7000DF93D82F162F072FC42FF22E413208F0BF
:104F800062C081E00E947B2780919C05882329F0E4
:104F900080E00E947B278823B9F381E080939C0501
:104FA000F0929A059FEF90932F05109274059C0F35
:104FB0009093730580939B0580919B05DD0FD82B03
:104FC000D0939B05809199058130A9F510929905A0
:104FD00081E00E947B2780919B058093BB0080E04D
:104FE0000E947B27811104C08091BC0083FDF3CF18
:104FF00085EC8093BC0081E00E947B2780919C051A
:10500000813029F480E00E947B278823B9F38091C6
:1050100074058C1790F0A5E7B5E0912FE12FF02FE4
:105020008E2F891B8C1760F08C2FDF91CF911F91F1
:105030000F91FF90089585EEDCCFC0917405EBCF02
:105040008D918193EDCFC0E0EFCFEF92FF920F9360
:105050001F93CF93DF93413208F06FC0E22ED42F1D
:10506000F72E162FC82F81E00E947B2780919C0588
:10507000882329F080E00E947B278823B9F382E00F
:1050800080939C0500939A058FEF80932F051092D3
:105090007405D0937305912FA5E7B5E0E12FFF2D9F
:1050A0008E2F891B8D17A0F110929B0580919B0577
:1050B000CC0FC82BC0939B0580919905813059F581
:1050C000109299050E947B2780E00E947B27811126
:1050D00008C080919B058093BB008091BC0083FD3C
:1050E000F3CF85EC8093BC0081E00E947B27EE200B
:1050F00049F080919C05823029F480E00E947B2752
:105100008823A9F380912F058F3F39F480E00EC0EA
:1051100081918D93C5CF85EEE5CF80912F058032AB
:1051200071F080912F05803361F084E0DF91CF91A1
:105130001F910F91FF90EF90089581E0F7CF82E0EB
:10514000F5CF83E0F3CF613298F420919C052430B1
:1051500089F460935105282FA3E5B5E0FC018E2F5B
:10516000821B861710F080E0089581918D93F7CF10
:1051700081E0089582E0089585ED8093BC0081E090
:105180000E947B278091BC0084FF05C080E00E94C4
:105190007B278823B9F310929C05089585EC8093B2
:1051A000BC0010929C0508951F920F920FB60F92AB
:1051B00011242F933F934F935F936F937F938F931C
:1051C0009F93AF93BF93EF93FF938091B900887F34
:1051D000803609F44CC008F03FC0883209F4A8C0FA
:1051E00018F5803109F49CC0B8F4882309F4F9C09B
:1051F000883009F495C0FF91EF91BF91AF919F91D5
:105200008F917F916F915F914F913F912F910F906F
:105210000FBE0F901F901895883109F489C0803215
:1052200051F780932F0515C0803409F49EC048F4CF
:105230008033B9F38833F9F680932F050E94CE2886
:10524000DACF803509F485C0883509F496C08834F2
:1052500091F60E94BC28CFCF883909F48CC038F56C
:10526000883729F050F4883611F0803721F683E032
:1052700080939C051092300557C0883809F47BC094
:10528000803919F0803809F0B6CF8091300580322E
:1052900008F071C0E091300581E08E0F80933005F9
:1052A0008091BB00F0E0EF5CFA4F80833DC0803B13
:1052B00039F0E0F4803A09F479C0883A09F09BCFDC
:1052C00084E080939C051092520510925105E09164
:1052D0009705F091980509958091510581110FC0AE
:1052E00081E0809351051092530509C0803C09F478
:1052F00076C0883C09F473C0883B09F07CCFE0910C
:10530000520581E08E0F80935205F0E0ED5AFA4F7E
:1053100080818093BB00909152058091510529C0F6
:1053200080919B058093BB0085EC8093BC0063CF8C
:105330009091740580917305981758F5E091740564
:1053400081E08E0F80937405F0E0EB58FA4F808176
:10535000E9CFE091740581E08E0F80937405809110
:10536000BB00F0E0EB58FA4F808390917405809178
:1053700073059817C8F285E8D8CFE091740581E0ED
:105380008E0F809374058091BB00F0E0EB58FA4FCC
:10539000808380919A0581115CCF81E0809399058B
:1053A00084EA8093BC0010929C0525CF0E94CE28F1
:1053B00080913005803230F4E0913005F0E0EF5C10
:1053C000FA4F10826091300570E0E0919505F09100
:1053D000960581E395E00995109230050CCF85EC98
:1053E000E0CF10922F0535CF1F920F920FB60F927C
:1053F00011242F933F938F939F93AF93BF938091EB
:105400009E0590919F05A091A005B091A1053091B6
:105410009D0526E0230F2D3758F50296A11DB11DDD
:1054200020939D0580939E0590939F05A093A005D2
:10543000B093A1058091A2059091A305A091A40528
:10544000B091A5050196A11DB11D8093A205909371
:10545000A305A093A405B093A505BF91AF919F911B
:105460008F913F912F910F900FBE0F901F90189525
:1054700029E8230F0396A11DB11DD2CF2FB7F894B1
:1054800060919E0570919F058091A0059091A10566
:105490002FBF08953FB7F8948091A2059091A3057E
:1054A000A091A405B091A50526B5A89B05C02F3FE6
:1054B00019F00196A11DB11D3FBFBA2FA92F982F3A
:1054C0008827BC01CD01620F711D811D911D43E034
:1054D000660F771F881F991F4A95D1F708958F92FD
:1054E0009F92AF92BF92CF92DF92EF92FF926B01A9
:1054F0007C010E944A2A4B015C01C114D104E104E1
:10550000F104E9F00E94482D0E944A2A681979099D
:105510008A099B09683E73408105910570F321E07B
:10552000C21AD108E108F10888EE880E83E0981EBF
:10553000A11CB11CC114D104E104F10429F7FF90AE
:10554000EF90DF90CF90BF90AF909F908F90089595
:10555000789484B5826084BD84B5816084BD85B54E
:10556000826085BD85B5816085BDEEE6F0E0808115
:1055700081608083E1E8F0E0108280818260808336
:10558000808181608083E0E8F0E0808181608083B9
:10559000E1EBF0E0808184608083E0EBF0E08081EB
:1055A00081608083E1E9F0E0808182608083808196
:1055B00081608083E0E9F0E0808181608083E1EABE
:1055C000F0E0808182608083808181608083E0EA76
:1055D000F0E0808181608083EAE7F0E08081846090
:1055E000808380818260808380818E7F80838081C0
:1055F000806880831092C100089581508D3008F03A
:105600003DC0E82FF0E0E95FF44D0C94AD301E2B67
:10561000222B142B1A2B3E2B3E2B252B2B2B2F2BE7
:10562000352B3E2B392B3F2B809180008F77809339
:1056300080000895809180008F7DF9CF84B58F77A9
:1056400084BD089584B58F7DFBCF8091B0008F77A6
:105650008093B00008958091B0008F7DF9CF809144
:1056600090008F77809390000895809190008F7DB7
:10567000F9CF8091A0008F778093A000089580914A
:10568000A0008F7DF9CFCF93DF9390E0FC01E25F24
:10569000FE4F24918A5D9E4FFC0184918823C9F0BE
:1056A00090E0880F991FFC01EA5AFE4FA591B49132
:1056B000FC01E65BFE4FC591D49161110DC09FB70F
:1056C000F8948C91209582238C93888128232883B9
:1056D0009FBFDF91CF910895623051F49FB7F89446
:1056E0003C91822F809583238C93E8812E2BEFCFE2
:1056F0008FB7F894EC912E2B2C938FBFEACF1F938A
:10570000CF93DF93282F30E0F901EA50FF4F8491C7
:10571000F901E25FFE4FD491F901EA5DFE4FC491B9
:10572000CC23A9F0162F81110E94FD2AEC2FF0E066
:10573000EE0FFF1FE65BFE4FA591B4918FB7F89473
:10574000EC91111108C0D095DE23DC938FBFDF915F
:10575000CF911F910895DE2BF8CFCF93DF93282FA1
:1057600030E0F901EA50FF4F8491F901E25FFE4F0A
:10577000D491F901EA5DFE4FC491CC23A1F08111CF
:105780000E94FD2AEC2FF0E0EE0FFF1FE25CFE4FBF
:10579000A591B491EC91ED2381E090E009F480E0D3
:1057A000DF91CF91089580E090E0FACFCF92DF9221
:1057B000EF92FF926B017C01C114D104E104F1046A
:1057C00041F00E943E32A70196010E948E306B018B
:1057D0007C01C701B601FF90EF90DF90CF90089554
:1057E000CF92DF92EF92FF926B017C01C216D3063B
:1057F000E406F50664F4CA01B9016C197D098E0945
:105800009F090E94D62BC60ED71EE81EF91EC7019F
:10581000B601FF90EF90DF90CF900895FC0180815A
:105820009181009711F00C9469310895CF93DF9323
:10583000EC0188819981009711F00E9469311982E9
:1058400018821D821C821B821A82DF91CF910895DB
:105850000F931F93CF93DF93EC018B016F5F7F4F0B
:10586000888199810E949632009751F099838883AC
:105870001B830A8381E0DF91CF911F910F910895DF
:1058800080E0F9CFCF93DF93EC0188819981892B58
:1058900049F08A819B818617970720F081E0DF918C
:1058A000CF910895CE010E94282C8823C1F38C81CA
:1058B0009D81892B99F7E881F9811082EFCFEF92D2
:1058C000FF920F931F93CF93DF93EC017B018A012B
:1058D000BA010E94422C81110BC0CE010E94162CED
:1058E000CE01DF91CF911F910F91FF90EF9008951E
:1058F0001D830C83B701888199810E947533F0CF95
:10590000FC011182108213821282158214826115A9
:10591000710551F0FB0101900020E9F73197AF01CB
:10592000461B570B0C945F2C0895EF92FF920F9338
:105930001F93CF93DF93EC017B018A01BA010E9490
:10594000422C81110BC0CE010E94162CCE01DF919A
:10595000CF911F910F91FF90EF9008951D830C83BD
:10596000B701888199810E945333F0CF0F931F9321
:10597000CF93DF93EC018B016115710571F0CB01C1
:105980000E945A33AC01B801CE010E94952CCE0181
:10599000DF91CF911F910F9108950E94162CF7CFA0
:1059A000FC011182108213821282158214820C94DF
:1059B000B62CCF93DF93EC01A881B981EB01E8818C
:1059C000F9811097F1F03097B1F4EC018C819D8151
:1059D000892BC9F08C9190E00BC0DB0114968D915E
:1059E0009C91892B81F0808190E09195819591091E
:1059F000DF91CF910895BF01CD01DF91CF910C943C
:105A00006C33309751F790E080E0F2CFFC01448195
:105A10005581FB01248135814217530729F40E94E7
:105A2000D92C21E0892B09F020E0822F0895FC0178
:105A300024813581232B31F421E0FB01672B49F4CC
:105A4000822F0895808191816115710539F421E0DB
:105A5000FC0180818823A1F320E0F2CF0E946C3307
:105A600021E0892B69F3F8CF08950E94A82A0E94AB
:105A7000342D0E949608C0E0D0E00E94650A20976D
:105A8000E1F30E940000F9CF0C94CD300C94693101
:105A900008955058BB27AA270E94612D0C94DB2E35
:105AA0000E94CD2E38F00E94D42E20F039F49F3F72
:105AB00019F426F40C94CA2E0EF4E095E7FB0C942E
:105AC000C42EE92F0E94EC2E58F3BA176207730711
:105AD0008407950720F079F4A6F50C940E2F0EF4A8
